{
	"contracts/4_TaxiRide-CA.sol": {
		"TaxiRide": {
			"abi": [
				{
					"inputs": [],
					"stateMutability": "nonpayable",
					"type": "constructor"
				},
				{
					"anonymous": false,
					"inputs": [
						{
							"indexed": false,
							"internalType": "address",
							"name": "passenger",
							"type": "address"
						},
						{
							"indexed": false,
							"internalType": "uint256",
							"name": "amount",
							"type": "uint256"
						}
					],
					"name": "PaymentReceived",
					"type": "event"
				},
				{
					"anonymous": false,
					"inputs": [
						{
							"indexed": false,
							"internalType": "uint256",
							"name": "rideId",
							"type": "uint256"
						},
						{
							"indexed": false,
							"internalType": "string",
							"name": "location",
							"type": "string"
						},
						{
							"indexed": false,
							"internalType": "uint256",
							"name": "price",
							"type": "uint256"
						}
					],
					"name": "RideAdded",
					"type": "event"
				},
				{
					"anonymous": false,
					"inputs": [
						{
							"indexed": false,
							"internalType": "address",
							"name": "passenger",
							"type": "address"
						},
						{
							"indexed": false,
							"internalType": "uint256",
							"name": "rideId",
							"type": "uint256"
						},
						{
							"indexed": false,
							"internalType": "uint256",
							"name": "totalCost",
							"type": "uint256"
						}
					],
					"name": "RideBooked",
					"type": "event"
				},
				{
					"inputs": [
						{
							"internalType": "string",
							"name": "_location",
							"type": "string"
						},
						{
							"internalType": "uint256",
							"name": "_price",
							"type": "uint256"
						}
					],
					"name": "addRide",
					"outputs": [],
					"stateMutability": "nonpayable",
					"type": "function"
				},
				{
					"inputs": [
						{
							"internalType": "uint256",
							"name": "_rideId",
							"type": "uint256"
						}
					],
					"name": "bookRide",
					"outputs": [],
					"stateMutability": "payable",
					"type": "function"
				},
				{
					"inputs": [],
					"name": "driver",
					"outputs": [
						{
							"internalType": "address",
							"name": "",
							"type": "address"
						}
					],
					"stateMutability": "view",
					"type": "function"
				},
				{
					"inputs": [],
					"name": "driverBalance",
					"outputs": [
						{
							"internalType": "uint256",
							"name": "",
							"type": "uint256"
						}
					],
					"stateMutability": "view",
					"type": "function"
				},
				{
					"inputs": [
						{
							"internalType": "uint256",
							"name": "_rideId",
							"type": "uint256"
						}
					],
					"name": "getRideDetails",
					"outputs": [
						{
							"internalType": "string",
							"name": "location",
							"type": "string"
						},
						{
							"internalType": "uint256",
							"name": "price",
							"type": "uint256"
						}
					],
					"stateMutability": "view",
					"type": "function"
				},
				{
					"inputs": [],
					"name": "rideCount",
					"outputs": [
						{
							"internalType": "uint256",
							"name": "",
							"type": "uint256"
						}
					],
					"stateMutability": "view",
					"type": "function"
				},
				{
					"inputs": [
						{
							"internalType": "uint256",
							"name": "",
							"type": "uint256"
						}
					],
					"name": "rides",
					"outputs": [
						{
							"internalType": "string",
							"name": "location",
							"type": "string"
						},
						{
							"internalType": "uint256",
							"name": "price",
							"type": "uint256"
						}
					],
					"stateMutability": "view",
					"type": "function"
				},
				{
					"inputs": [],
					"name": "withdrawBalance",
					"outputs": [],
					"stateMutability": "nonpayable",
					"type": "function"
				}
			],
			"devdoc": {
				"kind": "dev",
				"methods": {},
				"version": 1
			},
			"evm": {
				"assembly": "    /* \"contracts/4_TaxiRide-CA.sol\":134:3266  contract TaxiRide {... */\n  mstore(0x40, 0x80)\n    /* \"contracts/4_TaxiRide-CA.sol\":1297:1350  constructor() {... */\n  callvalue\n  dup1\n  iszero\n  tag_1\n  jumpi\n  0x00\n  dup1\n  revert\ntag_1:\n  pop\n    /* \"contracts/4_TaxiRide-CA.sol\":1331:1341  msg.sender */\n  caller\n    /* \"contracts/4_TaxiRide-CA.sol\":1322:1328  driver */\n  0x00\n  dup1\n    /* \"contracts/4_TaxiRide-CA.sol\":1322:1341  driver = msg.sender */\n  0x0100\n  exp\n  dup2\n  sload\n  dup2\n  0xffffffffffffffffffffffffffffffffffffffff\n  mul\n  not\n  and\n  swap1\n  dup4\n  0xffffffffffffffffffffffffffffffffffffffff\n  and\n  mul\n  or\n  swap1\n  sstore\n  pop\n    /* \"contracts/4_TaxiRide-CA.sol\":134:3266  contract TaxiRide {... */\n  dataSize(sub_0)\n  dup1\n  dataOffset(sub_0)\n  0x00\n  codecopy\n  0x00\n  return\nstop\n\nsub_0: assembly {\n        /* \"contracts/4_TaxiRide-CA.sol\":134:3266  contract TaxiRide {... */\n      mstore(0x40, 0x80)\n      jumpi(tag_1, lt(calldatasize, 0x04))\n      shr(0xe0, calldataload(0x00))\n      dup1\n      0x6ecc5d62\n      gt\n      tag_10\n      jumpi\n      dup1\n      0x6ecc5d62\n      eq\n      tag_6\n      jumpi\n      dup1\n      0x9e8d94ca\n      eq\n      tag_7\n      jumpi\n      dup1\n      0xb47c1883\n      eq\n      tag_8\n      jumpi\n      dup1\n      0xc69b2cf6\n      eq\n      tag_9\n      jumpi\n      jump(tag_1)\n    tag_10:\n      dup1\n      0x1d6be93c\n      eq\n      tag_2\n      jumpi\n      dup1\n      0x1f700641\n      eq\n      tag_3\n      jumpi\n      dup1\n      0x5205f112\n      eq\n      tag_4\n      jumpi\n      dup1\n      0x5fd8c710\n      eq\n      tag_5\n      jumpi\n    tag_1:\n      0x00\n      dup1\n      revert\n        /* \"contracts/4_TaxiRide-CA.sol\":3009:3263  function getRideDetails(uint _rideId) public view returns (string memory location, uint price) {... */\n    tag_2:\n      callvalue\n      dup1\n      iszero\n      tag_11\n      jumpi\n      0x00\n      dup1\n      revert\n    tag_11:\n      pop\n      tag_12\n      0x04\n      dup1\n      calldatasize\n      sub\n      dup2\n      add\n      swap1\n      tag_13\n      swap2\n      swap1\n      tag_14\n      jump\t// in\n    tag_13:\n      tag_15\n      jump\t// in\n    tag_12:\n      mload(0x40)\n      tag_16\n      swap3\n      swap2\n      swap1\n      tag_17\n      jump\t// in\n    tag_16:\n      mload(0x40)\n      dup1\n      swap2\n      sub\n      swap1\n      return\n        /* \"contracts/4_TaxiRide-CA.sol\":301:326  uint public driverBalance */\n    tag_3:\n      callvalue\n      dup1\n      iszero\n      tag_18\n      jumpi\n      0x00\n      dup1\n      revert\n    tag_18:\n      pop\n      tag_19\n      tag_20\n      jump\t// in\n    tag_19:\n      mload(0x40)\n      tag_21\n      swap2\n      swap1\n      tag_22\n      jump\t// in\n    tag_21:\n      mload(0x40)\n      dup1\n      swap2\n      sub\n      swap1\n      return\n        /* \"contracts/4_TaxiRide-CA.sol\":593:627  mapping(uint => Ride) public rides */\n    tag_4:\n      callvalue\n      dup1\n      iszero\n      tag_23\n      jumpi\n      0x00\n      dup1\n      revert\n    tag_23:\n      pop\n      tag_24\n      0x04\n      dup1\n      calldatasize\n      sub\n      dup2\n      add\n      swap1\n      tag_25\n      swap2\n      swap1\n      tag_14\n      jump\t// in\n    tag_25:\n      tag_26\n      jump\t// in\n    tag_24:\n      mload(0x40)\n      tag_27\n      swap3\n      swap2\n      swap1\n      tag_17\n      jump\t// in\n    tag_27:\n      mload(0x40)\n      dup1\n      swap2\n      sub\n      swap1\n      return\n        /* \"contracts/4_TaxiRide-CA.sol\":2532:2845  function withdrawBalance() public onlyDriver {... */\n    tag_5:\n      callvalue\n      dup1\n      iszero\n      tag_28\n      jumpi\n      0x00\n      dup1\n      revert\n    tag_28:\n      pop\n      tag_29\n      tag_30\n      jump\t// in\n    tag_29:\n      stop\n        /* \"contracts/4_TaxiRide-CA.sol\":224:245  address public driver */\n    tag_6:\n      callvalue\n      dup1\n      iszero\n      tag_31\n      jumpi\n      0x00\n      dup1\n      revert\n    tag_31:\n      pop\n      tag_32\n      tag_33\n      jump\t// in\n    tag_32:\n      mload(0x40)\n      tag_34\n      swap2\n      swap1\n      tag_35\n      jump\t// in\n    tag_34:\n      mload(0x40)\n      dup1\n      swap2\n      sub\n      swap1\n      return\n        /* \"contracts/4_TaxiRide-CA.sol\":1496:1760  function addRide(string memory _location, uint _price) public onlyDriver {... */\n    tag_7:\n      callvalue\n      dup1\n      iszero\n      tag_36\n      jumpi\n      0x00\n      dup1\n      revert\n    tag_36:\n      pop\n      tag_37\n      0x04\n      dup1\n      calldatasize\n      sub\n      dup2\n      add\n      swap1\n      tag_38\n      swap2\n      swap1\n      tag_39\n      jump\t// in\n    tag_38:\n      tag_40\n      jump\t// in\n    tag_37:\n      stop\n        /* \"contracts/4_TaxiRide-CA.sol\":635:656  uint public rideCount */\n    tag_8:\n      callvalue\n      dup1\n      iszero\n      tag_41\n      jumpi\n      0x00\n      dup1\n      revert\n    tag_41:\n      pop\n      tag_42\n      tag_43\n      jump\t// in\n    tag_42:\n      mload(0x40)\n      tag_44\n      swap2\n      swap1\n      tag_22\n      jump\t// in\n    tag_44:\n      mload(0x40)\n      dup1\n      swap2\n      sub\n      swap1\n      return\n        /* \"contracts/4_TaxiRide-CA.sol\":1895:2454  function bookRide(uint _rideId) public payable {... */\n    tag_9:\n      tag_45\n      0x04\n      dup1\n      calldatasize\n      sub\n      dup2\n      add\n      swap1\n      tag_46\n      swap2\n      swap1\n      tag_14\n      jump\t// in\n    tag_46:\n      tag_47\n      jump\t// in\n    tag_45:\n      stop\n        /* \"contracts/4_TaxiRide-CA.sol\":3009:3263  function getRideDetails(uint _rideId) public view returns (string memory location, uint price) {... */\n    tag_15:\n        /* \"contracts/4_TaxiRide-CA.sol\":3068:3090  string memory location */\n      0x60\n        /* \"contracts/4_TaxiRide-CA.sol\":3092:3102  uint price */\n      0x00\n        /* \"contracts/4_TaxiRide-CA.sol\":3133:3142  rideCount */\n      sload(0x03)\n        /* \"contracts/4_TaxiRide-CA.sol\":3123:3130  _rideId */\n      dup4\n        /* \"contracts/4_TaxiRide-CA.sol\":3123:3142  _rideId < rideCount */\n      lt\n        /* \"contracts/4_TaxiRide-CA.sol\":3115:3163  require(_rideId < rideCount, \"Invalid ride ID.\") */\n      tag_49\n      jumpi\n      mload(0x40)\n      0x08c379a000000000000000000000000000000000000000000000000000000000\n      dup2\n      mstore\n      0x04\n      add\n      tag_50\n      swap1\n      tag_51\n      jump\t// in\n    tag_50:\n      mload(0x40)\n      dup1\n      swap2\n      sub\n      swap1\n      revert\n    tag_49:\n        /* \"contracts/4_TaxiRide-CA.sol\":3175:3191  Ride memory ride */\n      0x00\n        /* \"contracts/4_TaxiRide-CA.sol\":3194:3199  rides */\n      0x02\n        /* \"contracts/4_TaxiRide-CA.sol\":3194:3208  rides[_rideId] */\n      0x00\n        /* \"contracts/4_TaxiRide-CA.sol\":3200:3207  _rideId */\n      dup6\n        /* \"contracts/4_TaxiRide-CA.sol\":3194:3208  rides[_rideId] */\n      dup2\n      mstore\n      0x20\n      add\n      swap1\n      dup2\n      mstore\n      0x20\n      add\n      0x00\n      keccak256\n        /* \"contracts/4_TaxiRide-CA.sol\":3175:3208  Ride memory ride = rides[_rideId] */\n      mload(0x40)\n      dup1\n      0x40\n      add\n      0x40\n      mstore\n      swap1\n      dup2\n      0x00\n      dup3\n      add\n      dup1\n      sload\n      tag_52\n      swap1\n      tag_53\n      jump\t// in\n    tag_52:\n      dup1\n      0x1f\n      add\n      0x20\n      dup1\n      swap2\n      div\n      mul\n      0x20\n      add\n      mload(0x40)\n      swap1\n      dup2\n      add\n      0x40\n      mstore\n      dup1\n      swap3\n      swap2\n      swap1\n      dup2\n      dup2\n      mstore\n      0x20\n      add\n      dup3\n      dup1\n      sload\n      tag_54\n      swap1\n      tag_53\n      jump\t// in\n    tag_54:\n      dup1\n      iszero\n      tag_55\n      jumpi\n      dup1\n      0x1f\n      lt\n      tag_56\n      jumpi\n      0x0100\n      dup1\n      dup4\n      sload\n      div\n      mul\n      dup4\n      mstore\n      swap2\n      0x20\n      add\n      swap2\n      jump(tag_55)\n    tag_56:\n      dup3\n      add\n      swap2\n      swap1\n      0x00\n      mstore\n      keccak256(0x00, 0x20)\n      swap1\n    tag_57:\n      dup2\n      sload\n      dup2\n      mstore\n      swap1\n      0x01\n      add\n      swap1\n      0x20\n      add\n      dup1\n      dup4\n      gt\n      tag_57\n      jumpi\n      dup3\n      swap1\n      sub\n      0x1f\n      and\n      dup3\n      add\n      swap2\n    tag_55:\n      pop\n      pop\n      pop\n      pop\n      pop\n      dup2\n      mstore\n      0x20\n      add\n      0x01\n      dup3\n      add\n      sload\n      dup2\n      mstore\n      pop\n      pop\n      swap1\n      pop\n        /* \"contracts/4_TaxiRide-CA.sol\":3228:3232  ride */\n      dup1\n        /* \"contracts/4_TaxiRide-CA.sol\":3228:3241  ride.location */\n      0x00\n      add\n      mload\n        /* \"contracts/4_TaxiRide-CA.sol\":3243:3247  ride */\n      dup2\n        /* \"contracts/4_TaxiRide-CA.sol\":3243:3253  ride.price */\n      0x20\n      add\n      mload\n        /* \"contracts/4_TaxiRide-CA.sol\":3220:3254  return (ride.location, ride.price) */\n      swap3\n      pop\n      swap3\n      pop\n      pop\n        /* \"contracts/4_TaxiRide-CA.sol\":3009:3263  function getRideDetails(uint _rideId) public view returns (string memory location, uint price) {... */\n      swap2\n      pop\n      swap2\n      jump\t// out\n        /* \"contracts/4_TaxiRide-CA.sol\":301:326  uint public driverBalance */\n    tag_20:\n      sload(0x01)\n      dup2\n      jump\t// out\n        /* \"contracts/4_TaxiRide-CA.sol\":593:627  mapping(uint => Ride) public rides */\n    tag_26:\n      mstore(0x20, 0x02)\n      dup1\n      0x00\n      mstore\n      keccak256(0x00, 0x40)\n      0x00\n      swap2\n      pop\n      swap1\n      pop\n      dup1\n      0x00\n      add\n      dup1\n      sload\n      tag_58\n      swap1\n      tag_53\n      jump\t// in\n    tag_58:\n      dup1\n      0x1f\n      add\n      0x20\n      dup1\n      swap2\n      div\n      mul\n      0x20\n      add\n      mload(0x40)\n      swap1\n      dup2\n      add\n      0x40\n      mstore\n      dup1\n      swap3\n      swap2\n      swap1\n      dup2\n      dup2\n      mstore\n      0x20\n      add\n      dup3\n      dup1\n      sload\n      tag_59\n      swap1\n      tag_53\n      jump\t// in\n    tag_59:\n      dup1\n      iszero\n      tag_60\n      jumpi\n      dup1\n      0x1f\n      lt\n      tag_61\n      jumpi\n      0x0100\n      dup1\n      dup4\n      sload\n      div\n      mul\n      dup4\n      mstore\n      swap2\n      0x20\n      add\n      swap2\n      jump(tag_60)\n    tag_61:\n      dup3\n      add\n      swap2\n      swap1\n      0x00\n      mstore\n      keccak256(0x00, 0x20)\n      swap1\n    tag_62:\n      dup2\n      sload\n      dup2\n      mstore\n      swap1\n      0x01\n      add\n      swap1\n      0x20\n      add\n      dup1\n      dup4\n      gt\n      tag_62\n      jumpi\n      dup3\n      swap1\n      sub\n      0x1f\n      and\n      dup3\n      add\n      swap2\n    tag_60:\n      pop\n      pop\n      pop\n      pop\n      pop\n      swap1\n      dup1\n      0x01\n      add\n      sload\n      swap1\n      pop\n      dup3\n      jump\t// out\n        /* \"contracts/4_TaxiRide-CA.sol\":2532:2845  function withdrawBalance() public onlyDriver {... */\n    tag_30:\n        /* \"contracts/4_TaxiRide-CA.sol\":1154:1160  driver */\n      0x00\n      dup1\n      sload\n      swap1\n      0x0100\n      exp\n      swap1\n      div\n      0xffffffffffffffffffffffffffffffffffffffff\n      and\n        /* \"contracts/4_TaxiRide-CA.sol\":1140:1160  msg.sender == driver */\n      0xffffffffffffffffffffffffffffffffffffffff\n      and\n        /* \"contracts/4_TaxiRide-CA.sol\":1140:1150  msg.sender */\n      caller\n        /* \"contracts/4_TaxiRide-CA.sol\":1140:1160  msg.sender == driver */\n      0xffffffffffffffffffffffffffffffffffffffff\n      and\n      eq\n        /* \"contracts/4_TaxiRide-CA.sol\":1132:1205  require(msg.sender == driver, \"Only the driver can perform this action.\") */\n      tag_64\n      jumpi\n      mload(0x40)\n      0x08c379a000000000000000000000000000000000000000000000000000000000\n      dup2\n      mstore\n      0x04\n      add\n      tag_65\n      swap1\n      tag_66\n      jump\t// in\n    tag_65:\n      mload(0x40)\n      dup1\n      swap2\n      sub\n      swap1\n      revert\n    tag_64:\n        /* \"contracts/4_TaxiRide-CA.sol\":2643:2654  uint amount */\n      0x00\n        /* \"contracts/4_TaxiRide-CA.sol\":2657:2670  driverBalance */\n      sload(0x01)\n        /* \"contracts/4_TaxiRide-CA.sol\":2643:2670  uint amount = driverBalance */\n      swap1\n      pop\n        /* \"contracts/4_TaxiRide-CA.sol\":2749:2750  0 */\n      0x00\n        /* \"contracts/4_TaxiRide-CA.sol\":2733:2746  driverBalance */\n      0x01\n        /* \"contracts/4_TaxiRide-CA.sol\":2733:2750  driverBalance = 0 */\n      dup2\n      swap1\n      sstore\n      pop\n        /* \"contracts/4_TaxiRide-CA.sol\":2812:2818  driver */\n      0x00\n      dup1\n      sload\n      swap1\n      0x0100\n      exp\n      swap1\n      div\n      0xffffffffffffffffffffffffffffffffffffffff\n      and\n        /* \"contracts/4_TaxiRide-CA.sol\":2804:2828  payable(driver).transfer */\n      0xffffffffffffffffffffffffffffffffffffffff\n      and\n        /* \"contracts/4_TaxiRide-CA.sol\":2804:2836  payable(driver).transfer(amount) */\n      0x08fc\n        /* \"contracts/4_TaxiRide-CA.sol\":2829:2835  amount */\n      dup3\n        /* \"contracts/4_TaxiRide-CA.sol\":2804:2836  payable(driver).transfer(amount) */\n      swap1\n      dup2\n      iszero\n      mul\n      swap1\n      mload(0x40)\n      0x00\n      mload(0x40)\n      dup1\n      dup4\n      sub\n      dup2\n      dup6\n      dup9\n      dup9\n      call\n      swap4\n      pop\n      pop\n      pop\n      pop\n      iszero\n      dup1\n      iszero\n      tag_69\n      jumpi\n      returndatasize\n      0x00\n      dup1\n      returndatacopy\n      revert(0x00, returndatasize)\n    tag_69:\n      pop\n        /* \"contracts/4_TaxiRide-CA.sol\":2577:2845  {... */\n      pop\n        /* \"contracts/4_TaxiRide-CA.sol\":2532:2845  function withdrawBalance() public onlyDriver {... */\n      jump\t// out\n        /* \"contracts/4_TaxiRide-CA.sol\":224:245  address public driver */\n    tag_33:\n      0x00\n      dup1\n      sload\n      swap1\n      0x0100\n      exp\n      swap1\n      div\n      0xffffffffffffffffffffffffffffffffffffffff\n      and\n      dup2\n      jump\t// out\n        /* \"contracts/4_TaxiRide-CA.sol\":1496:1760  function addRide(string memory _location, uint _price) public onlyDriver {... */\n    tag_40:\n        /* \"contracts/4_TaxiRide-CA.sol\":1154:1160  driver */\n      0x00\n      dup1\n      sload\n      swap1\n      0x0100\n      exp\n      swap1\n      div\n      0xffffffffffffffffffffffffffffffffffffffff\n      and\n        /* \"contracts/4_TaxiRide-CA.sol\":1140:1160  msg.sender == driver */\n      0xffffffffffffffffffffffffffffffffffffffff\n      and\n        /* \"contracts/4_TaxiRide-CA.sol\":1140:1150  msg.sender */\n      caller\n        /* \"contracts/4_TaxiRide-CA.sol\":1140:1160  msg.sender == driver */\n      0xffffffffffffffffffffffffffffffffffffffff\n      and\n      eq\n        /* \"contracts/4_TaxiRide-CA.sol\":1132:1205  require(msg.sender == driver, \"Only the driver can perform this action.\") */\n      tag_71\n      jumpi\n      mload(0x40)\n      0x08c379a000000000000000000000000000000000000000000000000000000000\n      dup2\n      mstore\n      0x04\n      add\n      tag_72\n      swap1\n      tag_66\n      jump\t// in\n    tag_72:\n      mload(0x40)\n      dup1\n      swap2\n      sub\n      swap1\n      revert\n    tag_71:\n        /* \"contracts/4_TaxiRide-CA.sol\":1599:1622  Ride(_location, _price) */\n      mload(0x40)\n      dup1\n      0x40\n      add\n      0x40\n      mstore\n      dup1\n        /* \"contracts/4_TaxiRide-CA.sol\":1604:1613  _location */\n      dup4\n        /* \"contracts/4_TaxiRide-CA.sol\":1599:1622  Ride(_location, _price) */\n      dup2\n      mstore\n      0x20\n      add\n        /* \"contracts/4_TaxiRide-CA.sol\":1615:1621  _price */\n      dup3\n        /* \"contracts/4_TaxiRide-CA.sol\":1599:1622  Ride(_location, _price) */\n      dup2\n      mstore\n      pop\n        /* \"contracts/4_TaxiRide-CA.sol\":1580:1585  rides */\n      0x02\n        /* \"contracts/4_TaxiRide-CA.sol\":1580:1596  rides[rideCount] */\n      0x00\n        /* \"contracts/4_TaxiRide-CA.sol\":1586:1595  rideCount */\n      sload(0x03)\n        /* \"contracts/4_TaxiRide-CA.sol\":1580:1596  rides[rideCount] */\n      dup2\n      mstore\n      0x20\n      add\n      swap1\n      dup2\n      mstore\n      0x20\n      add\n      0x00\n      keccak256\n        /* \"contracts/4_TaxiRide-CA.sol\":1580:1622  rides[rideCount] = Ride(_location, _price) */\n      0x00\n      dup3\n      add\n      mload\n      dup2\n      0x00\n      add\n      swap1\n      dup2\n      tag_74\n      swap2\n      swap1\n      tag_75\n      jump\t// in\n    tag_74:\n      pop\n      0x20\n      dup3\n      add\n      mload\n      dup2\n      0x01\n      add\n      sstore\n      swap1\n      pop\n      pop\n        /* \"contracts/4_TaxiRide-CA.sol\":1639:1678  RideAdded(rideCount, _location, _price) */\n      0xb4c91eb178f368ffbe29c74a0af92fbc35d376e2bc365674c81ba755cf8ba524\n        /* \"contracts/4_TaxiRide-CA.sol\":1649:1658  rideCount */\n      sload(0x03)\n        /* \"contracts/4_TaxiRide-CA.sol\":1660:1669  _location */\n      dup4\n        /* \"contracts/4_TaxiRide-CA.sol\":1671:1677  _price */\n      dup4\n        /* \"contracts/4_TaxiRide-CA.sol\":1639:1678  RideAdded(rideCount, _location, _price) */\n      mload(0x40)\n      tag_76\n      swap4\n      swap3\n      swap2\n      swap1\n      tag_77\n      jump\t// in\n    tag_76:\n      mload(0x40)\n      dup1\n      swap2\n      sub\n      swap1\n      log1\n        /* \"contracts/4_TaxiRide-CA.sol\":1740:1749  rideCount */\n      0x03\n      0x00\n        /* \"contracts/4_TaxiRide-CA.sol\":1740:1751  rideCount++ */\n      dup2\n      sload\n      dup1\n      swap3\n      swap2\n      swap1\n      tag_78\n      swap1\n      tag_79\n      jump\t// in\n    tag_78:\n      swap2\n      swap1\n      pop\n      sstore\n      pop\n        /* \"contracts/4_TaxiRide-CA.sol\":1496:1760  function addRide(string memory _location, uint _price) public onlyDriver {... */\n      pop\n      pop\n      jump\t// out\n        /* \"contracts/4_TaxiRide-CA.sol\":635:656  uint public rideCount */\n    tag_43:\n      sload(0x03)\n      dup2\n      jump\t// out\n        /* \"contracts/4_TaxiRide-CA.sol\":1895:2454  function bookRide(uint _rideId) public payable {... */\n    tag_47:\n        /* \"contracts/4_TaxiRide-CA.sol\":1971:1980  rideCount */\n      sload(0x03)\n        /* \"contracts/4_TaxiRide-CA.sol\":1961:1968  _rideId */\n      dup2\n        /* \"contracts/4_TaxiRide-CA.sol\":1961:1980  _rideId < rideCount */\n      lt\n        /* \"contracts/4_TaxiRide-CA.sol\":1953:2001  require(_rideId < rideCount, \"Invalid ride ID.\") */\n      tag_81\n      jumpi\n      mload(0x40)\n      0x08c379a000000000000000000000000000000000000000000000000000000000\n      dup2\n      mstore\n      0x04\n      add\n      tag_82\n      swap1\n      tag_51\n      jump\t// in\n    tag_82:\n      mload(0x40)\n      dup1\n      swap2\n      sub\n      swap1\n      revert\n    tag_81:\n        /* \"contracts/4_TaxiRide-CA.sol\":2013:2030  Ride storage ride */\n      0x00\n        /* \"contracts/4_TaxiRide-CA.sol\":2033:2038  rides */\n      0x02\n        /* \"contracts/4_TaxiRide-CA.sol\":2033:2047  rides[_rideId] */\n      0x00\n        /* \"contracts/4_TaxiRide-CA.sol\":2039:2046  _rideId */\n      dup4\n        /* \"contracts/4_TaxiRide-CA.sol\":2033:2047  rides[_rideId] */\n      dup2\n      mstore\n      0x20\n      add\n      swap1\n      dup2\n      mstore\n      0x20\n      add\n      0x00\n      keccak256\n        /* \"contracts/4_TaxiRide-CA.sol\":2013:2047  Ride storage ride = rides[_rideId] */\n      swap1\n      pop\n        /* \"contracts/4_TaxiRide-CA.sol\":2138:2152  uint totalCost */\n      0x00\n        /* \"contracts/4_TaxiRide-CA.sol\":2155:2159  ride */\n      dup2\n        /* \"contracts/4_TaxiRide-CA.sol\":2155:2165  ride.price */\n      0x01\n      add\n      sload\n        /* \"contracts/4_TaxiRide-CA.sol\":2138:2165  uint totalCost = ride.price */\n      swap1\n      pop\n        /* \"contracts/4_TaxiRide-CA.sol\":2198:2207  totalCost */\n      dup1\n        /* \"contracts/4_TaxiRide-CA.sol\":2185:2194  msg.value */\n      callvalue\n        /* \"contracts/4_TaxiRide-CA.sol\":2185:2207  msg.value == totalCost */\n      eq\n        /* \"contracts/4_TaxiRide-CA.sol\":2177:2237  require(msg.value == totalCost, \"Incorrect payment amount.\") */\n      tag_83\n      jumpi\n      mload(0x40)\n      0x08c379a000000000000000000000000000000000000000000000000000000000\n      dup2\n      mstore\n      0x04\n      add\n      tag_84\n      swap1\n      tag_85\n      jump\t// in\n    tag_84:\n      mload(0x40)\n      dup1\n      swap2\n      sub\n      swap1\n      revert\n    tag_83:\n        /* \"contracts/4_TaxiRide-CA.sol\":2268:2277  msg.value */\n      callvalue\n        /* \"contracts/4_TaxiRide-CA.sol\":2251:2264  driverBalance */\n      0x01\n      0x00\n        /* \"contracts/4_TaxiRide-CA.sol\":2251:2277  driverBalance += msg.value */\n      dup3\n      dup3\n      sload\n      tag_86\n      swap2\n      swap1\n      tag_87\n      jump\t// in\n    tag_86:\n      swap3\n      pop\n      pop\n      dup2\n      swap1\n      sstore\n      pop\n        /* \"contracts/4_TaxiRide-CA.sol\":2348:2390  RideBooked(msg.sender, _rideId, totalCost) */\n      0x783d1d9cf8c17b8fae1b9db747241a4e85d05a37f0e040726c2500b52992cd01\n        /* \"contracts/4_TaxiRide-CA.sol\":2359:2369  msg.sender */\n      caller\n        /* \"contracts/4_TaxiRide-CA.sol\":2371:2378  _rideId */\n      dup5\n        /* \"contracts/4_TaxiRide-CA.sol\":2380:2389  totalCost */\n      dup4\n        /* \"contracts/4_TaxiRide-CA.sol\":2348:2390  RideBooked(msg.sender, _rideId, totalCost) */\n      mload(0x40)\n      tag_88\n      swap4\n      swap3\n      swap2\n      swap1\n      tag_89\n      jump\t// in\n    tag_88:\n      mload(0x40)\n      dup1\n      swap2\n      sub\n      swap1\n      log1\n        /* \"contracts/4_TaxiRide-CA.sol\":2407:2445  PaymentReceived(msg.sender, msg.value) */\n      0x6ef95f06320e7a25a04a175ca677b7052bdd97131872c2192525a629f51be770\n        /* \"contracts/4_TaxiRide-CA.sol\":2423:2433  msg.sender */\n      caller\n        /* \"contracts/4_TaxiRide-CA.sol\":2435:2444  msg.value */\n      callvalue\n        /* \"contracts/4_TaxiRide-CA.sol\":2407:2445  PaymentReceived(msg.sender, msg.value) */\n      mload(0x40)\n      tag_90\n      swap3\n      swap2\n      swap1\n      tag_91\n      jump\t// in\n    tag_90:\n      mload(0x40)\n      dup1\n      swap2\n      sub\n      swap1\n      log1\n        /* \"contracts/4_TaxiRide-CA.sol\":1942:2454  {... */\n      pop\n      pop\n        /* \"contracts/4_TaxiRide-CA.sol\":1895:2454  function bookRide(uint _rideId) public payable {... */\n      pop\n      jump\t// out\n        /* \"#utility.yul\":7:82   */\n    tag_92:\n        /* \"#utility.yul\":40:46   */\n      0x00\n        /* \"#utility.yul\":73:75   */\n      0x40\n        /* \"#utility.yul\":67:76   */\n      mload\n        /* \"#utility.yul\":57:76   */\n      swap1\n      pop\n        /* \"#utility.yul\":7:82   */\n      swap1\n      jump\t// out\n        /* \"#utility.yul\":88:205   */\n    tag_93:\n        /* \"#utility.yul\":197:198   */\n      0x00\n        /* \"#utility.yul\":194:195   */\n      dup1\n        /* \"#utility.yul\":187:199   */\n      revert\n        /* \"#utility.yul\":211:328   */\n    tag_94:\n        /* \"#utility.yul\":320:321   */\n      0x00\n        /* \"#utility.yul\":317:318   */\n      dup1\n        /* \"#utility.yul\":310:322   */\n      revert\n        /* \"#utility.yul\":334:411   */\n    tag_95:\n        /* \"#utility.yul\":371:378   */\n      0x00\n        /* \"#utility.yul\":400:405   */\n      dup2\n        /* \"#utility.yul\":389:405   */\n      swap1\n      pop\n        /* \"#utility.yul\":334:411   */\n      swap2\n      swap1\n      pop\n      jump\t// out\n        /* \"#utility.yul\":417:539   */\n    tag_96:\n        /* \"#utility.yul\":490:514   */\n      tag_145\n        /* \"#utility.yul\":508:513   */\n      dup2\n        /* \"#utility.yul\":490:514   */\n      tag_95\n      jump\t// in\n    tag_145:\n        /* \"#utility.yul\":483:488   */\n      dup2\n        /* \"#utility.yul\":480:515   */\n      eq\n        /* \"#utility.yul\":470:533   */\n      tag_146\n      jumpi\n        /* \"#utility.yul\":529:530   */\n      0x00\n        /* \"#utility.yul\":526:527   */\n      dup1\n        /* \"#utility.yul\":519:531   */\n      revert\n        /* \"#utility.yul\":470:533   */\n    tag_146:\n        /* \"#utility.yul\":417:539   */\n      pop\n      jump\t// out\n        /* \"#utility.yul\":545:684   */\n    tag_97:\n        /* \"#utility.yul\":591:596   */\n      0x00\n        /* \"#utility.yul\":629:635   */\n      dup2\n        /* \"#utility.yul\":616:636   */\n      calldataload\n        /* \"#utility.yul\":607:636   */\n      swap1\n      pop\n        /* \"#utility.yul\":645:678   */\n      tag_148\n        /* \"#utility.yul\":672:677   */\n      dup2\n        /* \"#utility.yul\":645:678   */\n      tag_96\n      jump\t// in\n    tag_148:\n        /* \"#utility.yul\":545:684   */\n      swap3\n      swap2\n      pop\n      pop\n      jump\t// out\n        /* \"#utility.yul\":690:1019   */\n    tag_14:\n        /* \"#utility.yul\":749:755   */\n      0x00\n        /* \"#utility.yul\":798:800   */\n      0x20\n        /* \"#utility.yul\":786:795   */\n      dup3\n        /* \"#utility.yul\":777:784   */\n      dup5\n        /* \"#utility.yul\":773:796   */\n      sub\n        /* \"#utility.yul\":769:801   */\n      slt\n        /* \"#utility.yul\":766:885   */\n      iszero\n      tag_150\n      jumpi\n        /* \"#utility.yul\":804:883   */\n      tag_151\n      tag_93\n      jump\t// in\n    tag_151:\n        /* \"#utility.yul\":766:885   */\n    tag_150:\n        /* \"#utility.yul\":924:925   */\n      0x00\n        /* \"#utility.yul\":949:1002   */\n      tag_152\n        /* \"#utility.yul\":994:1001   */\n      dup5\n        /* \"#utility.yul\":985:991   */\n      dup3\n        /* \"#utility.yul\":974:983   */\n      dup6\n        /* \"#utility.yul\":970:992   */\n      add\n        /* \"#utility.yul\":949:1002   */\n      tag_97\n      jump\t// in\n    tag_152:\n        /* \"#utility.yul\":939:1002   */\n      swap2\n      pop\n        /* \"#utility.yul\":895:1012   */\n      pop\n        /* \"#utility.yul\":690:1019   */\n      swap3\n      swap2\n      pop\n      pop\n      jump\t// out\n        /* \"#utility.yul\":1025:1124   */\n    tag_98:\n        /* \"#utility.yul\":1077:1083   */\n      0x00\n        /* \"#utility.yul\":1111:1116   */\n      dup2\n        /* \"#utility.yul\":1105:1117   */\n      mload\n        /* \"#utility.yul\":1095:1117   */\n      swap1\n      pop\n        /* \"#utility.yul\":1025:1124   */\n      swap2\n      swap1\n      pop\n      jump\t// out\n        /* \"#utility.yul\":1130:1299   */\n    tag_99:\n        /* \"#utility.yul\":1214:1225   */\n      0x00\n        /* \"#utility.yul\":1248:1254   */\n      dup3\n        /* \"#utility.yul\":1243:1246   */\n      dup3\n        /* \"#utility.yul\":1236:1255   */\n      mstore\n        /* \"#utility.yul\":1288:1292   */\n      0x20\n        /* \"#utility.yul\":1283:1286   */\n      dup3\n        /* \"#utility.yul\":1279:1293   */\n      add\n        /* \"#utility.yul\":1264:1293   */\n      swap1\n      pop\n        /* \"#utility.yul\":1130:1299   */\n      swap3\n      swap2\n      pop\n      pop\n      jump\t// out\n        /* \"#utility.yul\":1305:1444   */\n    tag_100:\n        /* \"#utility.yul\":1394:1400   */\n      dup3\n        /* \"#utility.yul\":1389:1392   */\n      dup2\n        /* \"#utility.yul\":1384:1387   */\n      dup4\n        /* \"#utility.yul\":1378:1401   */\n      mcopy\n        /* \"#utility.yul\":1435:1436   */\n      0x00\n        /* \"#utility.yul\":1426:1432   */\n      dup4\n        /* \"#utility.yul\":1421:1424   */\n      dup4\n        /* \"#utility.yul\":1417:1433   */\n      add\n        /* \"#utility.yul\":1410:1437   */\n      mstore\n        /* \"#utility.yul\":1305:1444   */\n      pop\n      pop\n      pop\n      jump\t// out\n        /* \"#utility.yul\":1450:1552   */\n    tag_101:\n        /* \"#utility.yul\":1491:1497   */\n      0x00\n        /* \"#utility.yul\":1542:1544   */\n      0x1f\n        /* \"#utility.yul\":1538:1545   */\n      not\n        /* \"#utility.yul\":1533:1535   */\n      0x1f\n        /* \"#utility.yul\":1526:1531   */\n      dup4\n        /* \"#utility.yul\":1522:1536   */\n      add\n        /* \"#utility.yul\":1518:1546   */\n      and\n        /* \"#utility.yul\":1508:1546   */\n      swap1\n      pop\n        /* \"#utility.yul\":1450:1552   */\n      swap2\n      swap1\n      pop\n      jump\t// out\n        /* \"#utility.yul\":1558:1935   */\n    tag_102:\n        /* \"#utility.yul\":1646:1649   */\n      0x00\n        /* \"#utility.yul\":1674:1713   */\n      tag_158\n        /* \"#utility.yul\":1707:1712   */\n      dup3\n        /* \"#utility.yul\":1674:1713   */\n      tag_98\n      jump\t// in\n    tag_158:\n        /* \"#utility.yul\":1729:1800   */\n      tag_159\n        /* \"#utility.yul\":1793:1799   */\n      dup2\n        /* \"#utility.yul\":1788:1791   */\n      dup6\n        /* \"#utility.yul\":1729:1800   */\n      tag_99\n      jump\t// in\n    tag_159:\n        /* \"#utility.yul\":1722:1800   */\n      swap4\n      pop\n        /* \"#utility.yul\":1809:1874   */\n      tag_160\n        /* \"#utility.yul\":1867:1873   */\n      dup2\n        /* \"#utility.yul\":1862:1865   */\n      dup6\n        /* \"#utility.yul\":1855:1859   */\n      0x20\n        /* \"#utility.yul\":1848:1853   */\n      dup7\n        /* \"#utility.yul\":1844:1860   */\n      add\n        /* \"#utility.yul\":1809:1874   */\n      tag_100\n      jump\t// in\n    tag_160:\n        /* \"#utility.yul\":1899:1928   */\n      tag_161\n        /* \"#utility.yul\":1921:1927   */\n      dup2\n        /* \"#utility.yul\":1899:1928   */\n      tag_101\n      jump\t// in\n    tag_161:\n        /* \"#utility.yul\":1894:1897   */\n      dup5\n        /* \"#utility.yul\":1890:1929   */\n      add\n        /* \"#utility.yul\":1883:1929   */\n      swap2\n      pop\n        /* \"#utility.yul\":1650:1935   */\n      pop\n        /* \"#utility.yul\":1558:1935   */\n      swap3\n      swap2\n      pop\n      pop\n      jump\t// out\n        /* \"#utility.yul\":1941:2059   */\n    tag_103:\n        /* \"#utility.yul\":2028:2052   */\n      tag_163\n        /* \"#utility.yul\":2046:2051   */\n      dup2\n        /* \"#utility.yul\":2028:2052   */\n      tag_95\n      jump\t// in\n    tag_163:\n        /* \"#utility.yul\":2023:2026   */\n      dup3\n        /* \"#utility.yul\":2016:2053   */\n      mstore\n        /* \"#utility.yul\":1941:2059   */\n      pop\n      pop\n      jump\t// out\n        /* \"#utility.yul\":2065:2488   */\n    tag_17:\n        /* \"#utility.yul\":2206:2210   */\n      0x00\n        /* \"#utility.yul\":2244:2246   */\n      0x40\n        /* \"#utility.yul\":2233:2242   */\n      dup3\n        /* \"#utility.yul\":2229:2247   */\n      add\n        /* \"#utility.yul\":2221:2247   */\n      swap1\n      pop\n        /* \"#utility.yul\":2293:2302   */\n      dup2\n        /* \"#utility.yul\":2287:2291   */\n      dup2\n        /* \"#utility.yul\":2283:2303   */\n      sub\n        /* \"#utility.yul\":2279:2280   */\n      0x00\n        /* \"#utility.yul\":2268:2277   */\n      dup4\n        /* \"#utility.yul\":2264:2281   */\n      add\n        /* \"#utility.yul\":2257:2304   */\n      mstore\n        /* \"#utility.yul\":2321:2399   */\n      tag_165\n        /* \"#utility.yul\":2394:2398   */\n      dup2\n        /* \"#utility.yul\":2385:2391   */\n      dup6\n        /* \"#utility.yul\":2321:2399   */\n      tag_102\n      jump\t// in\n    tag_165:\n        /* \"#utility.yul\":2313:2399   */\n      swap1\n      pop\n        /* \"#utility.yul\":2409:2481   */\n      tag_166\n        /* \"#utility.yul\":2477:2479   */\n      0x20\n        /* \"#utility.yul\":2466:2475   */\n      dup4\n        /* \"#utility.yul\":2462:2480   */\n      add\n        /* \"#utility.yul\":2453:2459   */\n      dup5\n        /* \"#utility.yul\":2409:2481   */\n      tag_103\n      jump\t// in\n    tag_166:\n        /* \"#utility.yul\":2065:2488   */\n      swap4\n      swap3\n      pop\n      pop\n      pop\n      jump\t// out\n        /* \"#utility.yul\":2494:2716   */\n    tag_22:\n        /* \"#utility.yul\":2587:2591   */\n      0x00\n        /* \"#utility.yul\":2625:2627   */\n      0x20\n        /* \"#utility.yul\":2614:2623   */\n      dup3\n        /* \"#utility.yul\":2610:2628   */\n      add\n        /* \"#utility.yul\":2602:2628   */\n      swap1\n      pop\n        /* \"#utility.yul\":2638:2709   */\n      tag_168\n        /* \"#utility.yul\":2706:2707   */\n      0x00\n        /* \"#utility.yul\":2695:2704   */\n      dup4\n        /* \"#utility.yul\":2691:2708   */\n      add\n        /* \"#utility.yul\":2682:2688   */\n      dup5\n        /* \"#utility.yul\":2638:2709   */\n      tag_103\n      jump\t// in\n    tag_168:\n        /* \"#utility.yul\":2494:2716   */\n      swap3\n      swap2\n      pop\n      pop\n      jump\t// out\n        /* \"#utility.yul\":2722:2848   */\n    tag_104:\n        /* \"#utility.yul\":2759:2766   */\n      0x00\n        /* \"#utility.yul\":2799:2841   */\n      0xffffffffffffffffffffffffffffffffffffffff\n        /* \"#utility.yul\":2792:2797   */\n      dup3\n        /* \"#utility.yul\":2788:2842   */\n      and\n        /* \"#utility.yul\":2777:2842   */\n      swap1\n      pop\n        /* \"#utility.yul\":2722:2848   */\n      swap2\n      swap1\n      pop\n      jump\t// out\n        /* \"#utility.yul\":2854:2950   */\n    tag_105:\n        /* \"#utility.yul\":2891:2898   */\n      0x00\n        /* \"#utility.yul\":2920:2944   */\n      tag_171\n        /* \"#utility.yul\":2938:2943   */\n      dup3\n        /* \"#utility.yul\":2920:2944   */\n      tag_104\n      jump\t// in\n    tag_171:\n        /* \"#utility.yul\":2909:2944   */\n      swap1\n      pop\n        /* \"#utility.yul\":2854:2950   */\n      swap2\n      swap1\n      pop\n      jump\t// out\n        /* \"#utility.yul\":2956:3074   */\n    tag_106:\n        /* \"#utility.yul\":3043:3067   */\n      tag_173\n        /* \"#utility.yul\":3061:3066   */\n      dup2\n        /* \"#utility.yul\":3043:3067   */\n      tag_105\n      jump\t// in\n    tag_173:\n        /* \"#utility.yul\":3038:3041   */\n      dup3\n        /* \"#utility.yul\":3031:3068   */\n      mstore\n        /* \"#utility.yul\":2956:3074   */\n      pop\n      pop\n      jump\t// out\n        /* \"#utility.yul\":3080:3302   */\n    tag_35:\n        /* \"#utility.yul\":3173:3177   */\n      0x00\n        /* \"#utility.yul\":3211:3213   */\n      0x20\n        /* \"#utility.yul\":3200:3209   */\n      dup3\n        /* \"#utility.yul\":3196:3214   */\n      add\n        /* \"#utility.yul\":3188:3214   */\n      swap1\n      pop\n        /* \"#utility.yul\":3224:3295   */\n      tag_175\n        /* \"#utility.yul\":3292:3293   */\n      0x00\n        /* \"#utility.yul\":3281:3290   */\n      dup4\n        /* \"#utility.yul\":3277:3294   */\n      add\n        /* \"#utility.yul\":3268:3274   */\n      dup5\n        /* \"#utility.yul\":3224:3295   */\n      tag_106\n      jump\t// in\n    tag_175:\n        /* \"#utility.yul\":3080:3302   */\n      swap3\n      swap2\n      pop\n      pop\n      jump\t// out\n        /* \"#utility.yul\":3308:3425   */\n    tag_107:\n        /* \"#utility.yul\":3417:3418   */\n      0x00\n        /* \"#utility.yul\":3414:3415   */\n      dup1\n        /* \"#utility.yul\":3407:3419   */\n      revert\n        /* \"#utility.yul\":3431:3548   */\n    tag_108:\n        /* \"#utility.yul\":3540:3541   */\n      0x00\n        /* \"#utility.yul\":3537:3538   */\n      dup1\n        /* \"#utility.yul\":3530:3542   */\n      revert\n        /* \"#utility.yul\":3554:3734   */\n    tag_109:\n        /* \"#utility.yul\":3602:3679   */\n      0x4e487b7100000000000000000000000000000000000000000000000000000000\n        /* \"#utility.yul\":3599:3600   */\n      0x00\n        /* \"#utility.yul\":3592:3680   */\n      mstore\n        /* \"#utility.yul\":3699:3703   */\n      0x41\n        /* \"#utility.yul\":3696:3697   */\n      0x04\n        /* \"#utility.yul\":3689:3704   */\n      mstore\n        /* \"#utility.yul\":3723:3727   */\n      0x24\n        /* \"#utility.yul\":3720:3721   */\n      0x00\n        /* \"#utility.yul\":3713:3728   */\n      revert\n        /* \"#utility.yul\":3740:4021   */\n    tag_110:\n        /* \"#utility.yul\":3823:3850   */\n      tag_180\n        /* \"#utility.yul\":3845:3849   */\n      dup3\n        /* \"#utility.yul\":3823:3850   */\n      tag_101\n      jump\t// in\n    tag_180:\n        /* \"#utility.yul\":3815:3821   */\n      dup2\n        /* \"#utility.yul\":3811:3851   */\n      add\n        /* \"#utility.yul\":3953:3959   */\n      dup2\n        /* \"#utility.yul\":3941:3951   */\n      dup2\n        /* \"#utility.yul\":3938:3960   */\n      lt\n        /* \"#utility.yul\":3917:3935   */\n      0xffffffffffffffff\n        /* \"#utility.yul\":3905:3915   */\n      dup3\n        /* \"#utility.yul\":3902:3936   */\n      gt\n        /* \"#utility.yul\":3899:3961   */\n      or\n        /* \"#utility.yul\":3896:3984   */\n      iszero\n      tag_181\n      jumpi\n        /* \"#utility.yul\":3964:3982   */\n      tag_182\n      tag_109\n      jump\t// in\n    tag_182:\n        /* \"#utility.yul\":3896:3984   */\n    tag_181:\n        /* \"#utility.yul\":4004:4014   */\n      dup1\n        /* \"#utility.yul\":4000:4002   */\n      0x40\n        /* \"#utility.yul\":3993:4015   */\n      mstore\n        /* \"#utility.yul\":3783:4021   */\n      pop\n        /* \"#utility.yul\":3740:4021   */\n      pop\n      pop\n      jump\t// out\n        /* \"#utility.yul\":4027:4156   */\n    tag_111:\n        /* \"#utility.yul\":4061:4067   */\n      0x00\n        /* \"#utility.yul\":4088:4108   */\n      tag_184\n      tag_92\n      jump\t// in\n    tag_184:\n        /* \"#utility.yul\":4078:4108   */\n      swap1\n      pop\n        /* \"#utility.yul\":4117:4150   */\n      tag_185\n        /* \"#utility.yul\":4145:4149   */\n      dup3\n        /* \"#utility.yul\":4137:4143   */\n      dup3\n        /* \"#utility.yul\":4117:4150   */\n      tag_110\n      jump\t// in\n    tag_185:\n        /* \"#utility.yul\":4027:4156   */\n      swap2\n      swap1\n      pop\n      jump\t// out\n        /* \"#utility.yul\":4162:4470   */\n    tag_112:\n        /* \"#utility.yul\":4224:4228   */\n      0x00\n        /* \"#utility.yul\":4314:4332   */\n      0xffffffffffffffff\n        /* \"#utility.yul\":4306:4312   */\n      dup3\n        /* \"#utility.yul\":4303:4333   */\n      gt\n        /* \"#utility.yul\":4300:4356   */\n      iszero\n      tag_187\n      jumpi\n        /* \"#utility.yul\":4336:4354   */\n      tag_188\n      tag_109\n      jump\t// in\n    tag_188:\n        /* \"#utility.yul\":4300:4356   */\n    tag_187:\n        /* \"#utility.yul\":4374:4403   */\n      tag_189\n        /* \"#utility.yul\":4396:4402   */\n      dup3\n        /* \"#utility.yul\":4374:4403   */\n      tag_101\n      jump\t// in\n    tag_189:\n        /* \"#utility.yul\":4366:4403   */\n      swap1\n      pop\n        /* \"#utility.yul\":4458:4462   */\n      0x20\n        /* \"#utility.yul\":4452:4456   */\n      dup2\n        /* \"#utility.yul\":4448:4463   */\n      add\n        /* \"#utility.yul\":4440:4463   */\n      swap1\n      pop\n        /* \"#utility.yul\":4162:4470   */\n      swap2\n      swap1\n      pop\n      jump\t// out\n        /* \"#utility.yul\":4476:4624   */\n    tag_113:\n        /* \"#utility.yul\":4574:4580   */\n      dup3\n        /* \"#utility.yul\":4569:4572   */\n      dup2\n        /* \"#utility.yul\":4564:4567   */\n      dup4\n        /* \"#utility.yul\":4551:4581   */\n      calldatacopy\n        /* \"#utility.yul\":4615:4616   */\n      0x00\n        /* \"#utility.yul\":4606:4612   */\n      dup4\n        /* \"#utility.yul\":4601:4604   */\n      dup4\n        /* \"#utility.yul\":4597:4613   */\n      add\n        /* \"#utility.yul\":4590:4617   */\n      mstore\n        /* \"#utility.yul\":4476:4624   */\n      pop\n      pop\n      pop\n      jump\t// out\n        /* \"#utility.yul\":4630:5055   */\n    tag_114:\n        /* \"#utility.yul\":4708:4713   */\n      0x00\n        /* \"#utility.yul\":4733:4799   */\n      tag_192\n        /* \"#utility.yul\":4749:4798   */\n      tag_193\n        /* \"#utility.yul\":4791:4797   */\n      dup5\n        /* \"#utility.yul\":4749:4798   */\n      tag_112\n      jump\t// in\n    tag_193:\n        /* \"#utility.yul\":4733:4799   */\n      tag_111\n      jump\t// in\n    tag_192:\n        /* \"#utility.yul\":4724:4799   */\n      swap1\n      pop\n        /* \"#utility.yul\":4822:4828   */\n      dup3\n        /* \"#utility.yul\":4815:4820   */\n      dup2\n        /* \"#utility.yul\":4808:4829   */\n      mstore\n        /* \"#utility.yul\":4860:4864   */\n      0x20\n        /* \"#utility.yul\":4853:4858   */\n      dup2\n        /* \"#utility.yul\":4849:4865   */\n      add\n        /* \"#utility.yul\":4898:4901   */\n      dup5\n        /* \"#utility.yul\":4889:4895   */\n      dup5\n        /* \"#utility.yul\":4884:4887   */\n      dup5\n        /* \"#utility.yul\":4880:4896   */\n      add\n        /* \"#utility.yul\":4877:4902   */\n      gt\n        /* \"#utility.yul\":4874:4986   */\n      iszero\n      tag_194\n      jumpi\n        /* \"#utility.yul\":4905:4984   */\n      tag_195\n      tag_108\n      jump\t// in\n    tag_195:\n        /* \"#utility.yul\":4874:4986   */\n    tag_194:\n        /* \"#utility.yul\":4995:5049   */\n      tag_196\n        /* \"#utility.yul\":5042:5048   */\n      dup5\n        /* \"#utility.yul\":5037:5040   */\n      dup3\n        /* \"#utility.yul\":5032:5035   */\n      dup6\n        /* \"#utility.yul\":4995:5049   */\n      tag_113\n      jump\t// in\n    tag_196:\n        /* \"#utility.yul\":4714:5055   */\n      pop\n        /* \"#utility.yul\":4630:5055   */\n      swap4\n      swap3\n      pop\n      pop\n      pop\n      jump\t// out\n        /* \"#utility.yul\":5075:5415   */\n    tag_115:\n        /* \"#utility.yul\":5131:5136   */\n      0x00\n        /* \"#utility.yul\":5180:5183   */\n      dup3\n        /* \"#utility.yul\":5173:5177   */\n      0x1f\n        /* \"#utility.yul\":5165:5171   */\n      dup4\n        /* \"#utility.yul\":5161:5178   */\n      add\n        /* \"#utility.yul\":5157:5184   */\n      slt\n        /* \"#utility.yul\":5147:5269   */\n      tag_198\n      jumpi\n        /* \"#utility.yul\":5188:5267   */\n      tag_199\n      tag_107\n      jump\t// in\n    tag_199:\n        /* \"#utility.yul\":5147:5269   */\n    tag_198:\n        /* \"#utility.yul\":5305:5311   */\n      dup2\n        /* \"#utility.yul\":5292:5312   */\n      calldataload\n        /* \"#utility.yul\":5330:5409   */\n      tag_200\n        /* \"#utility.yul\":5405:5408   */\n      dup5\n        /* \"#utility.yul\":5397:5403   */\n      dup3\n        /* \"#utility.yul\":5390:5394   */\n      0x20\n        /* \"#utility.yul\":5382:5388   */\n      dup7\n        /* \"#utility.yul\":5378:5395   */\n      add\n        /* \"#utility.yul\":5330:5409   */\n      tag_114\n      jump\t// in\n    tag_200:\n        /* \"#utility.yul\":5321:5409   */\n      swap2\n      pop\n        /* \"#utility.yul\":5137:5415   */\n      pop\n        /* \"#utility.yul\":5075:5415   */\n      swap3\n      swap2\n      pop\n      pop\n      jump\t// out\n        /* \"#utility.yul\":5421:6075   */\n    tag_39:\n        /* \"#utility.yul\":5499:5505   */\n      0x00\n        /* \"#utility.yul\":5507:5513   */\n      dup1\n        /* \"#utility.yul\":5556:5558   */\n      0x40\n        /* \"#utility.yul\":5544:5553   */\n      dup4\n        /* \"#utility.yul\":5535:5542   */\n      dup6\n        /* \"#utility.yul\":5531:5554   */\n      sub\n        /* \"#utility.yul\":5527:5559   */\n      slt\n        /* \"#utility.yul\":5524:5643   */\n      iszero\n      tag_202\n      jumpi\n        /* \"#utility.yul\":5562:5641   */\n      tag_203\n      tag_93\n      jump\t// in\n    tag_203:\n        /* \"#utility.yul\":5524:5643   */\n    tag_202:\n        /* \"#utility.yul\":5710:5711   */\n      0x00\n        /* \"#utility.yul\":5699:5708   */\n      dup4\n        /* \"#utility.yul\":5695:5712   */\n      add\n        /* \"#utility.yul\":5682:5713   */\n      calldataload\n        /* \"#utility.yul\":5740:5758   */\n      0xffffffffffffffff\n        /* \"#utility.yul\":5732:5738   */\n      dup2\n        /* \"#utility.yul\":5729:5759   */\n      gt\n        /* \"#utility.yul\":5726:5843   */\n      iszero\n      tag_204\n      jumpi\n        /* \"#utility.yul\":5762:5841   */\n      tag_205\n      tag_94\n      jump\t// in\n    tag_205:\n        /* \"#utility.yul\":5726:5843   */\n    tag_204:\n        /* \"#utility.yul\":5867:5930   */\n      tag_206\n        /* \"#utility.yul\":5922:5929   */\n      dup6\n        /* \"#utility.yul\":5913:5919   */\n      dup3\n        /* \"#utility.yul\":5902:5911   */\n      dup7\n        /* \"#utility.yul\":5898:5920   */\n      add\n        /* \"#utility.yul\":5867:5930   */\n      tag_115\n      jump\t// in\n    tag_206:\n        /* \"#utility.yul\":5857:5930   */\n      swap3\n      pop\n        /* \"#utility.yul\":5653:5940   */\n      pop\n        /* \"#utility.yul\":5979:5981   */\n      0x20\n        /* \"#utility.yul\":6005:6058   */\n      tag_207\n        /* \"#utility.yul\":6050:6057   */\n      dup6\n        /* \"#utility.yul\":6041:6047   */\n      dup3\n        /* \"#utility.yul\":6030:6039   */\n      dup7\n        /* \"#utility.yul\":6026:6048   */\n      add\n        /* \"#utility.yul\":6005:6058   */\n      tag_97\n      jump\t// in\n    tag_207:\n        /* \"#utility.yul\":5995:6058   */\n      swap2\n      pop\n        /* \"#utility.yul\":5950:6068   */\n      pop\n        /* \"#utility.yul\":5421:6075   */\n      swap3\n      pop\n      swap3\n      swap1\n      pop\n      jump\t// out\n        /* \"#utility.yul\":6081:6247   */\n    tag_116:\n        /* \"#utility.yul\":6221:6239   */\n      0x496e76616c696420726964652049442e00000000000000000000000000000000\n        /* \"#utility.yul\":6217:6218   */\n      0x00\n        /* \"#utility.yul\":6209:6215   */\n      dup3\n        /* \"#utility.yul\":6205:6219   */\n      add\n        /* \"#utility.yul\":6198:6240   */\n      mstore\n        /* \"#utility.yul\":6081:6247   */\n      pop\n      jump\t// out\n        /* \"#utility.yul\":6253:6619   */\n    tag_117:\n        /* \"#utility.yul\":6395:6398   */\n      0x00\n        /* \"#utility.yul\":6416:6483   */\n      tag_210\n        /* \"#utility.yul\":6480:6482   */\n      0x10\n        /* \"#utility.yul\":6475:6478   */\n      dup4\n        /* \"#utility.yul\":6416:6483   */\n      tag_99\n      jump\t// in\n    tag_210:\n        /* \"#utility.yul\":6409:6483   */\n      swap2\n      pop\n        /* \"#utility.yul\":6492:6585   */\n      tag_211\n        /* \"#utility.yul\":6581:6584   */\n      dup3\n        /* \"#utility.yul\":6492:6585   */\n      tag_116\n      jump\t// in\n    tag_211:\n        /* \"#utility.yul\":6610:6612   */\n      0x20\n        /* \"#utility.yul\":6605:6608   */\n      dup3\n        /* \"#utility.yul\":6601:6613   */\n      add\n        /* \"#utility.yul\":6594:6613   */\n      swap1\n      pop\n        /* \"#utility.yul\":6253:6619   */\n      swap2\n      swap1\n      pop\n      jump\t// out\n        /* \"#utility.yul\":6625:7044   */\n    tag_51:\n        /* \"#utility.yul\":6791:6795   */\n      0x00\n        /* \"#utility.yul\":6829:6831   */\n      0x20\n        /* \"#utility.yul\":6818:6827   */\n      dup3\n        /* \"#utility.yul\":6814:6832   */\n      add\n        /* \"#utility.yul\":6806:6832   */\n      swap1\n      pop\n        /* \"#utility.yul\":6878:6887   */\n      dup2\n        /* \"#utility.yul\":6872:6876   */\n      dup2\n        /* \"#utility.yul\":6868:6888   */\n      sub\n        /* \"#utility.yul\":6864:6865   */\n      0x00\n        /* \"#utility.yul\":6853:6862   */\n      dup4\n        /* \"#utility.yul\":6849:6866   */\n      add\n        /* \"#utility.yul\":6842:6889   */\n      mstore\n        /* \"#utility.yul\":6906:7037   */\n      tag_213\n        /* \"#utility.yul\":7032:7036   */\n      dup2\n        /* \"#utility.yul\":6906:7037   */\n      tag_117\n      jump\t// in\n    tag_213:\n        /* \"#utility.yul\":6898:7037   */\n      swap1\n      pop\n        /* \"#utility.yul\":6625:7044   */\n      swap2\n      swap1\n      pop\n      jump\t// out\n        /* \"#utility.yul\":7050:7230   */\n    tag_118:\n        /* \"#utility.yul\":7098:7175   */\n      0x4e487b7100000000000000000000000000000000000000000000000000000000\n        /* \"#utility.yul\":7095:7096   */\n      0x00\n        /* \"#utility.yul\":7088:7176   */\n      mstore\n        /* \"#utility.yul\":7195:7199   */\n      0x22\n        /* \"#utility.yul\":7192:7193   */\n      0x04\n        /* \"#utility.yul\":7185:7200   */\n      mstore\n        /* \"#utility.yul\":7219:7223   */\n      0x24\n        /* \"#utility.yul\":7216:7217   */\n      0x00\n        /* \"#utility.yul\":7209:7224   */\n      revert\n        /* \"#utility.yul\":7236:7556   */\n    tag_53:\n        /* \"#utility.yul\":7280:7286   */\n      0x00\n        /* \"#utility.yul\":7317:7318   */\n      0x02\n        /* \"#utility.yul\":7311:7315   */\n      dup3\n        /* \"#utility.yul\":7307:7319   */\n      div\n        /* \"#utility.yul\":7297:7319   */\n      swap1\n      pop\n        /* \"#utility.yul\":7364:7365   */\n      0x01\n        /* \"#utility.yul\":7358:7362   */\n      dup3\n        /* \"#utility.yul\":7354:7366   */\n      and\n        /* \"#utility.yul\":7385:7403   */\n      dup1\n        /* \"#utility.yul\":7375:7456   */\n      tag_216\n      jumpi\n        /* \"#utility.yul\":7441:7445   */\n      0x7f\n        /* \"#utility.yul\":7433:7439   */\n      dup3\n        /* \"#utility.yul\":7429:7446   */\n      and\n        /* \"#utility.yul\":7419:7446   */\n      swap2\n      pop\n        /* \"#utility.yul\":7375:7456   */\n    tag_216:\n        /* \"#utility.yul\":7503:7505   */\n      0x20\n        /* \"#utility.yul\":7495:7501   */\n      dup3\n        /* \"#utility.yul\":7492:7506   */\n      lt\n        /* \"#utility.yul\":7472:7490   */\n      dup2\n        /* \"#utility.yul\":7469:7507   */\n      sub\n        /* \"#utility.yul\":7466:7550   */\n      tag_217\n      jumpi\n        /* \"#utility.yul\":7522:7540   */\n      tag_218\n      tag_118\n      jump\t// in\n    tag_218:\n        /* \"#utility.yul\":7466:7550   */\n    tag_217:\n        /* \"#utility.yul\":7287:7556   */\n      pop\n        /* \"#utility.yul\":7236:7556   */\n      swap2\n      swap1\n      pop\n      jump\t// out\n        /* \"#utility.yul\":7562:7789   */\n    tag_119:\n        /* \"#utility.yul\":7702:7736   */\n      0x4f6e6c7920746865206472697665722063616e20706572666f726d2074686973\n        /* \"#utility.yul\":7698:7699   */\n      0x00\n        /* \"#utility.yul\":7690:7696   */\n      dup3\n        /* \"#utility.yul\":7686:7700   */\n      add\n        /* \"#utility.yul\":7679:7737   */\n      mstore\n        /* \"#utility.yul\":7771:7781   */\n      0x20616374696f6e2e000000000000000000000000000000000000000000000000\n        /* \"#utility.yul\":7766:7768   */\n      0x20\n        /* \"#utility.yul\":7758:7764   */\n      dup3\n        /* \"#utility.yul\":7754:7769   */\n      add\n        /* \"#utility.yul\":7747:7782   */\n      mstore\n        /* \"#utility.yul\":7562:7789   */\n      pop\n      jump\t// out\n        /* \"#utility.yul\":7795:8161   */\n    tag_120:\n        /* \"#utility.yul\":7937:7940   */\n      0x00\n        /* \"#utility.yul\":7958:8025   */\n      tag_221\n        /* \"#utility.yul\":8022:8024   */\n      0x28\n        /* \"#utility.yul\":8017:8020   */\n      dup4\n        /* \"#utility.yul\":7958:8025   */\n      tag_99\n      jump\t// in\n    tag_221:\n        /* \"#utility.yul\":7951:8025   */\n      swap2\n      pop\n        /* \"#utility.yul\":8034:8127   */\n      tag_222\n        /* \"#utility.yul\":8123:8126   */\n      dup3\n        /* \"#utility.yul\":8034:8127   */\n      tag_119\n      jump\t// in\n    tag_222:\n        /* \"#utility.yul\":8152:8154   */\n      0x40\n        /* \"#utility.yul\":8147:8150   */\n      dup3\n        /* \"#utility.yul\":8143:8155   */\n      add\n        /* \"#utility.yul\":8136:8155   */\n      swap1\n      pop\n        /* \"#utility.yul\":7795:8161   */\n      swap2\n      swap1\n      pop\n      jump\t// out\n        /* \"#utility.yul\":8167:8586   */\n    tag_66:\n        /* \"#utility.yul\":8333:8337   */\n      0x00\n        /* \"#utility.yul\":8371:8373   */\n      0x20\n        /* \"#utility.yul\":8360:8369   */\n      dup3\n        /* \"#utility.yul\":8356:8374   */\n      add\n        /* \"#utility.yul\":8348:8374   */\n      swap1\n      pop\n        /* \"#utility.yul\":8420:8429   */\n      dup2\n        /* \"#utility.yul\":8414:8418   */\n      dup2\n        /* \"#utility.yul\":8410:8430   */\n      sub\n        /* \"#utility.yul\":8406:8407   */\n      0x00\n        /* \"#utility.yul\":8395:8404   */\n      dup4\n        /* \"#utility.yul\":8391:8408   */\n      add\n        /* \"#utility.yul\":8384:8431   */\n      mstore\n        /* \"#utility.yul\":8448:8579   */\n      tag_224\n        /* \"#utility.yul\":8574:8578   */\n      dup2\n        /* \"#utility.yul\":8448:8579   */\n      tag_120\n      jump\t// in\n    tag_224:\n        /* \"#utility.yul\":8440:8579   */\n      swap1\n      pop\n        /* \"#utility.yul\":8167:8586   */\n      swap2\n      swap1\n      pop\n      jump\t// out\n        /* \"#utility.yul\":8592:8733   */\n    tag_121:\n        /* \"#utility.yul\":8641:8645   */\n      0x00\n        /* \"#utility.yul\":8664:8667   */\n      dup2\n        /* \"#utility.yul\":8656:8667   */\n      swap1\n      pop\n        /* \"#utility.yul\":8687:8690   */\n      dup2\n        /* \"#utility.yul\":8684:8685   */\n      0x00\n        /* \"#utility.yul\":8677:8691   */\n      mstore\n        /* \"#utility.yul\":8721:8725   */\n      0x20\n        /* \"#utility.yul\":8718:8719   */\n      0x00\n        /* \"#utility.yul\":8708:8726   */\n      keccak256\n        /* \"#utility.yul\":8700:8726   */\n      swap1\n      pop\n        /* \"#utility.yul\":8592:8733   */\n      swap2\n      swap1\n      pop\n      jump\t// out\n        /* \"#utility.yul\":8739:8832   */\n    tag_122:\n        /* \"#utility.yul\":8776:8782   */\n      0x00\n        /* \"#utility.yul\":8823:8825   */\n      0x20\n        /* \"#utility.yul\":8818:8820   */\n      0x1f\n        /* \"#utility.yul\":8811:8816   */\n      dup4\n        /* \"#utility.yul\":8807:8821   */\n      add\n        /* \"#utility.yul\":8803:8826   */\n      div\n        /* \"#utility.yul\":8793:8826   */\n      swap1\n      pop\n        /* \"#utility.yul\":8739:8832   */\n      swap2\n      swap1\n      pop\n      jump\t// out\n        /* \"#utility.yul\":8838:8945   */\n    tag_123:\n        /* \"#utility.yul\":8882:8890   */\n      0x00\n        /* \"#utility.yul\":8932:8937   */\n      dup3\n        /* \"#utility.yul\":8926:8930   */\n      dup3\n        /* \"#utility.yul\":8922:8938   */\n      shl\n        /* \"#utility.yul\":8901:8938   */\n      swap1\n      pop\n        /* \"#utility.yul\":8838:8945   */\n      swap3\n      swap2\n      pop\n      pop\n      jump\t// out\n        /* \"#utility.yul\":8951:9344   */\n    tag_124:\n        /* \"#utility.yul\":9020:9026   */\n      0x00\n        /* \"#utility.yul\":9070:9071   */\n      0x08\n        /* \"#utility.yul\":9058:9068   */\n      dup4\n        /* \"#utility.yul\":9054:9072   */\n      mul\n        /* \"#utility.yul\":9093:9190   */\n      tag_229\n        /* \"#utility.yul\":9123:9189   */\n      0xffffffffffffffffffffffffffffffffffffffffffffffffffffffffffffffff\n        /* \"#utility.yul\":9112:9121   */\n      dup3\n        /* \"#utility.yul\":9093:9190   */\n      tag_123\n      jump\t// in\n    tag_229:\n        /* \"#utility.yul\":9211:9250   */\n      tag_230\n        /* \"#utility.yul\":9241:9249   */\n      dup7\n        /* \"#utility.yul\":9230:9239   */\n      dup4\n        /* \"#utility.yul\":9211:9250   */\n      tag_123\n      jump\t// in\n    tag_230:\n        /* \"#utility.yul\":9199:9250   */\n      swap6\n      pop\n        /* \"#utility.yul\":9283:9287   */\n      dup1\n        /* \"#utility.yul\":9279:9288   */\n      not\n        /* \"#utility.yul\":9272:9277   */\n      dup5\n        /* \"#utility.yul\":9268:9289   */\n      and\n        /* \"#utility.yul\":9259:9289   */\n      swap4\n      pop\n        /* \"#utility.yul\":9332:9336   */\n      dup1\n        /* \"#utility.yul\":9322:9330   */\n      dup7\n        /* \"#utility.yul\":9318:9337   */\n      and\n        /* \"#utility.yul\":9311:9316   */\n      dup5\n        /* \"#utility.yul\":9308:9338   */\n      or\n        /* \"#utility.yul\":9298:9338   */\n      swap3\n      pop\n        /* \"#utility.yul\":9027:9344   */\n      pop\n      pop\n        /* \"#utility.yul\":8951:9344   */\n      swap4\n      swap3\n      pop\n      pop\n      pop\n      jump\t// out\n        /* \"#utility.yul\":9350:9410   */\n    tag_125:\n        /* \"#utility.yul\":9378:9381   */\n      0x00\n        /* \"#utility.yul\":9399:9404   */\n      dup2\n        /* \"#utility.yul\":9392:9404   */\n      swap1\n      pop\n        /* \"#utility.yul\":9350:9410   */\n      swap2\n      swap1\n      pop\n      jump\t// out\n        /* \"#utility.yul\":9416:9558   */\n    tag_126:\n        /* \"#utility.yul\":9466:9475   */\n      0x00\n        /* \"#utility.yul\":9499:9552   */\n      tag_233\n        /* \"#utility.yul\":9517:9551   */\n      tag_234\n        /* \"#utility.yul\":9526:9550   */\n      tag_235\n        /* \"#utility.yul\":9544:9549   */\n      dup5\n        /* \"#utility.yul\":9526:9550   */\n      tag_95\n      jump\t// in\n    tag_235:\n        /* \"#utility.yul\":9517:9551   */\n      tag_125\n      jump\t// in\n    tag_234:\n        /* \"#utility.yul\":9499:9552   */\n      tag_95\n      jump\t// in\n    tag_233:\n        /* \"#utility.yul\":9486:9552   */\n      swap1\n      pop\n        /* \"#utility.yul\":9416:9558   */\n      swap2\n      swap1\n      pop\n      jump\t// out\n        /* \"#utility.yul\":9564:9639   */\n    tag_127:\n        /* \"#utility.yul\":9607:9610   */\n      0x00\n        /* \"#utility.yul\":9628:9633   */\n      dup2\n        /* \"#utility.yul\":9621:9633   */\n      swap1\n      pop\n        /* \"#utility.yul\":9564:9639   */\n      swap2\n      swap1\n      pop\n      jump\t// out\n        /* \"#utility.yul\":9645:9914   */\n    tag_128:\n        /* \"#utility.yul\":9755:9794   */\n      tag_238\n        /* \"#utility.yul\":9786:9793   */\n      dup4\n        /* \"#utility.yul\":9755:9794   */\n      tag_126\n      jump\t// in\n    tag_238:\n        /* \"#utility.yul\":9816:9907   */\n      tag_239\n        /* \"#utility.yul\":9865:9906   */\n      tag_240\n        /* \"#utility.yul\":9889:9905   */\n      dup3\n        /* \"#utility.yul\":9865:9906   */\n      tag_127\n      jump\t// in\n    tag_240:\n        /* \"#utility.yul\":9857:9863   */\n      dup5\n        /* \"#utility.yul\":9850:9854   */\n      dup5\n        /* \"#utility.yul\":9844:9855   */\n      sload\n        /* \"#utility.yul\":9816:9907   */\n      tag_124\n      jump\t// in\n    tag_239:\n        /* \"#utility.yul\":9810:9814   */\n      dup3\n        /* \"#utility.yul\":9803:9908   */\n      sstore\n        /* \"#utility.yul\":9721:9914   */\n      pop\n        /* \"#utility.yul\":9645:9914   */\n      pop\n      pop\n      pop\n      jump\t// out\n        /* \"#utility.yul\":9920:9993   */\n    tag_129:\n        /* \"#utility.yul\":9965:9968   */\n      0x00\n        /* \"#utility.yul\":9920:9993   */\n      swap1\n      jump\t// out\n        /* \"#utility.yul\":9999:10188   */\n    tag_130:\n        /* \"#utility.yul\":10076:10108   */\n      tag_243\n      tag_129\n      jump\t// in\n    tag_243:\n        /* \"#utility.yul\":10117:10182   */\n      tag_244\n        /* \"#utility.yul\":10175:10181   */\n      dup2\n        /* \"#utility.yul\":10167:10173   */\n      dup5\n        /* \"#utility.yul\":10161:10165   */\n      dup5\n        /* \"#utility.yul\":10117:10182   */\n      tag_128\n      jump\t// in\n    tag_244:\n        /* \"#utility.yul\":10052:10188   */\n      pop\n        /* \"#utility.yul\":9999:10188   */\n      pop\n      pop\n      jump\t// out\n        /* \"#utility.yul\":10194:10380   */\n    tag_131:\n        /* \"#utility.yul\":10254:10374   */\n    tag_246:\n        /* \"#utility.yul\":10271:10274   */\n      dup2\n        /* \"#utility.yul\":10264:10269   */\n      dup2\n        /* \"#utility.yul\":10261:10275   */\n      lt\n        /* \"#utility.yul\":10254:10374   */\n      iszero\n      tag_248\n      jumpi\n        /* \"#utility.yul\":10325:10364   */\n      tag_249\n        /* \"#utility.yul\":10362:10363   */\n      0x00\n        /* \"#utility.yul\":10355:10360   */\n      dup3\n        /* \"#utility.yul\":10325:10364   */\n      tag_130\n      jump\t// in\n    tag_249:\n        /* \"#utility.yul\":10298:10299   */\n      0x01\n        /* \"#utility.yul\":10291:10296   */\n      dup2\n        /* \"#utility.yul\":10287:10300   */\n      add\n        /* \"#utility.yul\":10278:10300   */\n      swap1\n      pop\n        /* \"#utility.yul\":10254:10374   */\n      jump(tag_246)\n    tag_248:\n        /* \"#utility.yul\":10194:10380   */\n      pop\n      pop\n      jump\t// out\n        /* \"#utility.yul\":10386:10929   */\n    tag_132:\n        /* \"#utility.yul\":10487:10489   */\n      0x1f\n        /* \"#utility.yul\":10482:10485   */\n      dup3\n        /* \"#utility.yul\":10479:10490   */\n      gt\n        /* \"#utility.yul\":10476:10922   */\n      iszero\n      tag_251\n      jumpi\n        /* \"#utility.yul\":10521:10559   */\n      tag_252\n        /* \"#utility.yul\":10553:10558   */\n      dup2\n        /* \"#utility.yul\":10521:10559   */\n      tag_121\n      jump\t// in\n    tag_252:\n        /* \"#utility.yul\":10605:10634   */\n      tag_253\n        /* \"#utility.yul\":10623:10633   */\n      dup5\n        /* \"#utility.yul\":10605:10634   */\n      tag_122\n      jump\t// in\n    tag_253:\n        /* \"#utility.yul\":10595:10603   */\n      dup2\n        /* \"#utility.yul\":10591:10635   */\n      add\n        /* \"#utility.yul\":10788:10790   */\n      0x20\n        /* \"#utility.yul\":10776:10786   */\n      dup6\n        /* \"#utility.yul\":10773:10791   */\n      lt\n        /* \"#utility.yul\":10770:10819   */\n      iszero\n      tag_254\n      jumpi\n        /* \"#utility.yul\":10809:10817   */\n      dup2\n        /* \"#utility.yul\":10794:10817   */\n      swap1\n      pop\n        /* \"#utility.yul\":10770:10819   */\n    tag_254:\n        /* \"#utility.yul\":10832:10912   */\n      tag_255\n        /* \"#utility.yul\":10888:10910   */\n      tag_256\n        /* \"#utility.yul\":10906:10909   */\n      dup6\n        /* \"#utility.yul\":10888:10910   */\n      tag_122\n      jump\t// in\n    tag_256:\n        /* \"#utility.yul\":10878:10886   */\n      dup4\n        /* \"#utility.yul\":10874:10911   */\n      add\n        /* \"#utility.yul\":10861:10872   */\n      dup3\n        /* \"#utility.yul\":10832:10912   */\n      tag_131\n      jump\t// in\n    tag_255:\n        /* \"#utility.yul\":10491:10922   */\n      pop\n      pop\n        /* \"#utility.yul\":10476:10922   */\n    tag_251:\n        /* \"#utility.yul\":10386:10929   */\n      pop\n      pop\n      pop\n      jump\t// out\n        /* \"#utility.yul\":10935:11052   */\n    tag_133:\n        /* \"#utility.yul\":10989:10997   */\n      0x00\n        /* \"#utility.yul\":11039:11044   */\n      dup3\n        /* \"#utility.yul\":11033:11037   */\n      dup3\n        /* \"#utility.yul\":11029:11045   */\n      shr\n        /* \"#utility.yul\":11008:11045   */\n      swap1\n      pop\n        /* \"#utility.yul\":10935:11052   */\n      swap3\n      swap2\n      pop\n      pop\n      jump\t// out\n        /* \"#utility.yul\":11058:11227   */\n    tag_134:\n        /* \"#utility.yul\":11102:11108   */\n      0x00\n        /* \"#utility.yul\":11135:11186   */\n      tag_259\n        /* \"#utility.yul\":11183:11184   */\n      0x00\n        /* \"#utility.yul\":11179:11185   */\n      not\n        /* \"#utility.yul\":11171:11176   */\n      dup5\n        /* \"#utility.yul\":11168:11169   */\n      0x08\n        /* \"#utility.yul\":11164:11177   */\n      mul\n        /* \"#utility.yul\":11135:11186   */\n      tag_133\n      jump\t// in\n    tag_259:\n        /* \"#utility.yul\":11131:11187   */\n      not\n        /* \"#utility.yul\":11216:11220   */\n      dup1\n        /* \"#utility.yul\":11210:11214   */\n      dup4\n        /* \"#utility.yul\":11206:11221   */\n      and\n        /* \"#utility.yul\":11196:11221   */\n      swap2\n      pop\n        /* \"#utility.yul\":11109:11227   */\n      pop\n        /* \"#utility.yul\":11058:11227   */\n      swap3\n      swap2\n      pop\n      pop\n      jump\t// out\n        /* \"#utility.yul\":11232:11527   */\n    tag_135:\n        /* \"#utility.yul\":11308:11312   */\n      0x00\n        /* \"#utility.yul\":11454:11483   */\n      tag_261\n        /* \"#utility.yul\":11479:11482   */\n      dup4\n        /* \"#utility.yul\":11473:11477   */\n      dup4\n        /* \"#utility.yul\":11454:11483   */\n      tag_134\n      jump\t// in\n    tag_261:\n        /* \"#utility.yul\":11446:11483   */\n      swap2\n      pop\n        /* \"#utility.yul\":11516:11519   */\n      dup3\n        /* \"#utility.yul\":11513:11514   */\n      0x02\n        /* \"#utility.yul\":11509:11520   */\n      mul\n        /* \"#utility.yul\":11503:11507   */\n      dup3\n        /* \"#utility.yul\":11500:11521   */\n      or\n        /* \"#utility.yul\":11492:11521   */\n      swap1\n      pop\n        /* \"#utility.yul\":11232:11527   */\n      swap3\n      swap2\n      pop\n      pop\n      jump\t// out\n        /* \"#utility.yul\":11532:12927   */\n    tag_75:\n        /* \"#utility.yul\":11649:11686   */\n      tag_263\n        /* \"#utility.yul\":11682:11685   */\n      dup3\n        /* \"#utility.yul\":11649:11686   */\n      tag_98\n      jump\t// in\n    tag_263:\n        /* \"#utility.yul\":11751:11769   */\n      0xffffffffffffffff\n        /* \"#utility.yul\":11743:11749   */\n      dup2\n        /* \"#utility.yul\":11740:11770   */\n      gt\n        /* \"#utility.yul\":11737:11793   */\n      iszero\n      tag_264\n      jumpi\n        /* \"#utility.yul\":11773:11791   */\n      tag_265\n      tag_109\n      jump\t// in\n    tag_265:\n        /* \"#utility.yul\":11737:11793   */\n    tag_264:\n        /* \"#utility.yul\":11817:11855   */\n      tag_266\n        /* \"#utility.yul\":11849:11853   */\n      dup3\n        /* \"#utility.yul\":11843:11854   */\n      sload\n        /* \"#utility.yul\":11817:11855   */\n      tag_53\n      jump\t// in\n    tag_266:\n        /* \"#utility.yul\":11902:11969   */\n      tag_267\n        /* \"#utility.yul\":11962:11968   */\n      dup3\n        /* \"#utility.yul\":11954:11960   */\n      dup3\n        /* \"#utility.yul\":11948:11952   */\n      dup6\n        /* \"#utility.yul\":11902:11969   */\n      tag_132\n      jump\t// in\n    tag_267:\n        /* \"#utility.yul\":11996:11997   */\n      0x00\n        /* \"#utility.yul\":12020:12024   */\n      0x20\n        /* \"#utility.yul\":12007:12024   */\n      swap1\n      pop\n        /* \"#utility.yul\":12052:12054   */\n      0x1f\n        /* \"#utility.yul\":12044:12050   */\n      dup4\n        /* \"#utility.yul\":12041:12055   */\n      gt\n        /* \"#utility.yul\":12069:12070   */\n      0x01\n        /* \"#utility.yul\":12064:12682   */\n      dup2\n      eq\n      tag_269\n      jumpi\n        /* \"#utility.yul\":12726:12727   */\n      0x00\n        /* \"#utility.yul\":12743:12749   */\n      dup5\n        /* \"#utility.yul\":12740:12817   */\n      iszero\n      tag_270\n      jumpi\n        /* \"#utility.yul\":12792:12801   */\n      dup3\n        /* \"#utility.yul\":12787:12790   */\n      dup8\n        /* \"#utility.yul\":12783:12802   */\n      add\n        /* \"#utility.yul\":12777:12803   */\n      mload\n        /* \"#utility.yul\":12768:12803   */\n      swap1\n      pop\n        /* \"#utility.yul\":12740:12817   */\n    tag_270:\n        /* \"#utility.yul\":12843:12910   */\n      tag_271\n        /* \"#utility.yul\":12903:12909   */\n      dup6\n        /* \"#utility.yul\":12896:12901   */\n      dup3\n        /* \"#utility.yul\":12843:12910   */\n      tag_135\n      jump\t// in\n    tag_271:\n        /* \"#utility.yul\":12837:12841   */\n      dup7\n        /* \"#utility.yul\":12830:12911   */\n      sstore\n        /* \"#utility.yul\":12699:12921   */\n      pop\n        /* \"#utility.yul\":12034:12921   */\n      jump(tag_268)\n        /* \"#utility.yul\":12064:12682   */\n    tag_269:\n        /* \"#utility.yul\":12116:12120   */\n      0x1f\n        /* \"#utility.yul\":12112:12121   */\n      not\n        /* \"#utility.yul\":12104:12110   */\n      dup5\n        /* \"#utility.yul\":12100:12122   */\n      and\n        /* \"#utility.yul\":12150:12187   */\n      tag_272\n        /* \"#utility.yul\":12182:12186   */\n      dup7\n        /* \"#utility.yul\":12150:12187   */\n      tag_121\n      jump\t// in\n    tag_272:\n        /* \"#utility.yul\":12209:12210   */\n      0x00\n        /* \"#utility.yul\":12223:12431   */\n    tag_273:\n        /* \"#utility.yul\":12237:12244   */\n      dup3\n        /* \"#utility.yul\":12234:12235   */\n      dup2\n        /* \"#utility.yul\":12231:12245   */\n      lt\n        /* \"#utility.yul\":12223:12431   */\n      iszero\n      tag_275\n      jumpi\n        /* \"#utility.yul\":12316:12325   */\n      dup5\n        /* \"#utility.yul\":12311:12314   */\n      dup10\n        /* \"#utility.yul\":12307:12326   */\n      add\n        /* \"#utility.yul\":12301:12327   */\n      mload\n        /* \"#utility.yul\":12293:12299   */\n      dup3\n        /* \"#utility.yul\":12286:12328   */\n      sstore\n        /* \"#utility.yul\":12367:12368   */\n      0x01\n        /* \"#utility.yul\":12359:12365   */\n      dup3\n        /* \"#utility.yul\":12355:12369   */\n      add\n        /* \"#utility.yul\":12345:12369   */\n      swap2\n      pop\n        /* \"#utility.yul\":12414:12416   */\n      0x20\n        /* \"#utility.yul\":12403:12412   */\n      dup6\n        /* \"#utility.yul\":12399:12417   */\n      add\n        /* \"#utility.yul\":12386:12417   */\n      swap5\n      pop\n        /* \"#utility.yul\":12260:12264   */\n      0x20\n        /* \"#utility.yul\":12257:12258   */\n      dup2\n        /* \"#utility.yul\":12253:12265   */\n      add\n        /* \"#utility.yul\":12248:12265   */\n      swap1\n      pop\n        /* \"#utility.yul\":12223:12431   */\n      jump(tag_273)\n    tag_275:\n        /* \"#utility.yul\":12459:12465   */\n      dup7\n        /* \"#utility.yul\":12450:12457   */\n      dup4\n        /* \"#utility.yul\":12447:12466   */\n      lt\n        /* \"#utility.yul\":12444:12623   */\n      iszero\n      tag_276\n      jumpi\n        /* \"#utility.yul\":12517:12526   */\n      dup5\n        /* \"#utility.yul\":12512:12515   */\n      dup10\n        /* \"#utility.yul\":12508:12527   */\n      add\n        /* \"#utility.yul\":12502:12528   */\n      mload\n        /* \"#utility.yul\":12560:12608   */\n      tag_277\n        /* \"#utility.yul\":12602:12606   */\n      0x1f\n        /* \"#utility.yul\":12594:12600   */\n      dup10\n        /* \"#utility.yul\":12590:12607   */\n      and\n        /* \"#utility.yul\":12579:12588   */\n      dup3\n        /* \"#utility.yul\":12560:12608   */\n      tag_134\n      jump\t// in\n    tag_277:\n        /* \"#utility.yul\":12552:12558   */\n      dup4\n        /* \"#utility.yul\":12545:12609   */\n      sstore\n        /* \"#utility.yul\":12467:12623   */\n      pop\n        /* \"#utility.yul\":12444:12623   */\n    tag_276:\n        /* \"#utility.yul\":12669:12670   */\n      0x01\n        /* \"#utility.yul\":12665:12666   */\n      0x02\n        /* \"#utility.yul\":12657:12663   */\n      dup9\n        /* \"#utility.yul\":12653:12667   */\n      mul\n        /* \"#utility.yul\":12649:12671   */\n      add\n        /* \"#utility.yul\":12643:12647   */\n      dup9\n        /* \"#utility.yul\":12636:12672   */\n      sstore\n        /* \"#utility.yul\":12071:12682   */\n      pop\n      pop\n      pop\n        /* \"#utility.yul\":12034:12921   */\n    tag_268:\n      pop\n        /* \"#utility.yul\":11624:12927   */\n      pop\n      pop\n      pop\n        /* \"#utility.yul\":11532:12927   */\n      pop\n      pop\n      jump\t// out\n        /* \"#utility.yul\":12933:13466   */\n    tag_77:\n        /* \"#utility.yul\":13102:13106   */\n      0x00\n        /* \"#utility.yul\":13140:13142   */\n      0x60\n        /* \"#utility.yul\":13129:13138   */\n      dup3\n        /* \"#utility.yul\":13125:13143   */\n      add\n        /* \"#utility.yul\":13117:13143   */\n      swap1\n      pop\n        /* \"#utility.yul\":13153:13224   */\n      tag_279\n        /* \"#utility.yul\":13221:13222   */\n      0x00\n        /* \"#utility.yul\":13210:13219   */\n      dup4\n        /* \"#utility.yul\":13206:13223   */\n      add\n        /* \"#utility.yul\":13197:13203   */\n      dup7\n        /* \"#utility.yul\":13153:13224   */\n      tag_103\n      jump\t// in\n    tag_279:\n        /* \"#utility.yul\":13271:13280   */\n      dup2\n        /* \"#utility.yul\":13265:13269   */\n      dup2\n        /* \"#utility.yul\":13261:13281   */\n      sub\n        /* \"#utility.yul\":13256:13258   */\n      0x20\n        /* \"#utility.yul\":13245:13254   */\n      dup4\n        /* \"#utility.yul\":13241:13259   */\n      add\n        /* \"#utility.yul\":13234:13282   */\n      mstore\n        /* \"#utility.yul\":13299:13377   */\n      tag_280\n        /* \"#utility.yul\":13372:13376   */\n      dup2\n        /* \"#utility.yul\":13363:13369   */\n      dup6\n        /* \"#utility.yul\":13299:13377   */\n      tag_102\n      jump\t// in\n    tag_280:\n        /* \"#utility.yul\":13291:13377   */\n      swap1\n      pop\n        /* \"#utility.yul\":13387:13459   */\n      tag_281\n        /* \"#utility.yul\":13455:13457   */\n      0x40\n        /* \"#utility.yul\":13444:13453   */\n      dup4\n        /* \"#utility.yul\":13440:13458   */\n      add\n        /* \"#utility.yul\":13431:13437   */\n      dup5\n        /* \"#utility.yul\":13387:13459   */\n      tag_103\n      jump\t// in\n    tag_281:\n        /* \"#utility.yul\":12933:13466   */\n      swap5\n      swap4\n      pop\n      pop\n      pop\n      pop\n      jump\t// out\n        /* \"#utility.yul\":13472:13652   */\n    tag_136:\n        /* \"#utility.yul\":13520:13597   */\n      0x4e487b7100000000000000000000000000000000000000000000000000000000\n        /* \"#utility.yul\":13517:13518   */\n      0x00\n        /* \"#utility.yul\":13510:13598   */\n      mstore\n        /* \"#utility.yul\":13617:13621   */\n      0x11\n        /* \"#utility.yul\":13614:13615   */\n      0x04\n        /* \"#utility.yul\":13607:13622   */\n      mstore\n        /* \"#utility.yul\":13641:13645   */\n      0x24\n        /* \"#utility.yul\":13638:13639   */\n      0x00\n        /* \"#utility.yul\":13631:13646   */\n      revert\n        /* \"#utility.yul\":13658:13891   */\n    tag_79:\n        /* \"#utility.yul\":13697:13700   */\n      0x00\n        /* \"#utility.yul\":13720:13744   */\n      tag_284\n        /* \"#utility.yul\":13738:13743   */\n      dup3\n        /* \"#utility.yul\":13720:13744   */\n      tag_95\n      jump\t// in\n    tag_284:\n        /* \"#utility.yul\":13711:13744   */\n      swap2\n      pop\n        /* \"#utility.yul\":13766:13832   */\n      0xffffffffffffffffffffffffffffffffffffffffffffffffffffffffffffffff\n        /* \"#utility.yul\":13759:13764   */\n      dup3\n        /* \"#utility.yul\":13756:13833   */\n      sub\n        /* \"#utility.yul\":13753:13856   */\n      tag_285\n      jumpi\n        /* \"#utility.yul\":13836:13854   */\n      tag_286\n      tag_136\n      jump\t// in\n    tag_286:\n        /* \"#utility.yul\":13753:13856   */\n    tag_285:\n        /* \"#utility.yul\":13883:13884   */\n      0x01\n        /* \"#utility.yul\":13876:13881   */\n      dup3\n        /* \"#utility.yul\":13872:13885   */\n      add\n        /* \"#utility.yul\":13865:13885   */\n      swap1\n      pop\n        /* \"#utility.yul\":13658:13891   */\n      swap2\n      swap1\n      pop\n      jump\t// out\n        /* \"#utility.yul\":13897:14072   */\n    tag_137:\n        /* \"#utility.yul\":14037:14064   */\n      0x496e636f7272656374207061796d656e7420616d6f756e742e00000000000000\n        /* \"#utility.yul\":14033:14034   */\n      0x00\n        /* \"#utility.yul\":14025:14031   */\n      dup3\n        /* \"#utility.yul\":14021:14035   */\n      add\n        /* \"#utility.yul\":14014:14065   */\n      mstore\n        /* \"#utility.yul\":13897:14072   */\n      pop\n      jump\t// out\n        /* \"#utility.yul\":14078:14444   */\n    tag_138:\n        /* \"#utility.yul\":14220:14223   */\n      0x00\n        /* \"#utility.yul\":14241:14308   */\n      tag_289\n        /* \"#utility.yul\":14305:14307   */\n      0x19\n        /* \"#utility.yul\":14300:14303   */\n      dup4\n        /* \"#utility.yul\":14241:14308   */\n      tag_99\n      jump\t// in\n    tag_289:\n        /* \"#utility.yul\":14234:14308   */\n      swap2\n      pop\n        /* \"#utility.yul\":14317:14410   */\n      tag_290\n        /* \"#utility.yul\":14406:14409   */\n      dup3\n        /* \"#utility.yul\":14317:14410   */\n      tag_137\n      jump\t// in\n    tag_290:\n        /* \"#utility.yul\":14435:14437   */\n      0x20\n        /* \"#utility.yul\":14430:14433   */\n      dup3\n        /* \"#utility.yul\":14426:14438   */\n      add\n        /* \"#utility.yul\":14419:14438   */\n      swap1\n      pop\n        /* \"#utility.yul\":14078:14444   */\n      swap2\n      swap1\n      pop\n      jump\t// out\n        /* \"#utility.yul\":14450:14869   */\n    tag_85:\n        /* \"#utility.yul\":14616:14620   */\n      0x00\n        /* \"#utility.yul\":14654:14656   */\n      0x20\n        /* \"#utility.yul\":14643:14652   */\n      dup3\n        /* \"#utility.yul\":14639:14657   */\n      add\n        /* \"#utility.yul\":14631:14657   */\n      swap1\n      pop\n        /* \"#utility.yul\":14703:14712   */\n      dup2\n        /* \"#utility.yul\":14697:14701   */\n      dup2\n        /* \"#utility.yul\":14693:14713   */\n      sub\n        /* \"#utility.yul\":14689:14690   */\n      0x00\n        /* \"#utility.yul\":14678:14687   */\n      dup4\n        /* \"#utility.yul\":14674:14691   */\n      add\n        /* \"#utility.yul\":14667:14714   */\n      mstore\n        /* \"#utility.yul\":14731:14862   */\n      tag_292\n        /* \"#utility.yul\":14857:14861   */\n      dup2\n        /* \"#utility.yul\":14731:14862   */\n      tag_138\n      jump\t// in\n    tag_292:\n        /* \"#utility.yul\":14723:14862   */\n      swap1\n      pop\n        /* \"#utility.yul\":14450:14869   */\n      swap2\n      swap1\n      pop\n      jump\t// out\n        /* \"#utility.yul\":14875:15066   */\n    tag_87:\n        /* \"#utility.yul\":14915:14918   */\n      0x00\n        /* \"#utility.yul\":14934:14954   */\n      tag_294\n        /* \"#utility.yul\":14952:14953   */\n      dup3\n        /* \"#utility.yul\":14934:14954   */\n      tag_95\n      jump\t// in\n    tag_294:\n        /* \"#utility.yul\":14929:14954   */\n      swap2\n      pop\n        /* \"#utility.yul\":14968:14988   */\n      tag_295\n        /* \"#utility.yul\":14986:14987   */\n      dup4\n        /* \"#utility.yul\":14968:14988   */\n      tag_95\n      jump\t// in\n    tag_295:\n        /* \"#utility.yul\":14963:14988   */\n      swap3\n      pop\n        /* \"#utility.yul\":15011:15012   */\n      dup3\n        /* \"#utility.yul\":15008:15009   */\n      dup3\n        /* \"#utility.yul\":15004:15013   */\n      add\n        /* \"#utility.yul\":14997:15013   */\n      swap1\n      pop\n        /* \"#utility.yul\":15032:15035   */\n      dup1\n        /* \"#utility.yul\":15029:15030   */\n      dup3\n        /* \"#utility.yul\":15026:15036   */\n      gt\n        /* \"#utility.yul\":15023:15059   */\n      iszero\n      tag_296\n      jumpi\n        /* \"#utility.yul\":15039:15057   */\n      tag_297\n      tag_136\n      jump\t// in\n    tag_297:\n        /* \"#utility.yul\":15023:15059   */\n    tag_296:\n        /* \"#utility.yul\":14875:15066   */\n      swap3\n      swap2\n      pop\n      pop\n      jump\t// out\n        /* \"#utility.yul\":15072:15514   */\n    tag_89:\n        /* \"#utility.yul\":15221:15225   */\n      0x00\n        /* \"#utility.yul\":15259:15261   */\n      0x60\n        /* \"#utility.yul\":15248:15257   */\n      dup3\n        /* \"#utility.yul\":15244:15262   */\n      add\n        /* \"#utility.yul\":15236:15262   */\n      swap1\n      pop\n        /* \"#utility.yul\":15272:15343   */\n      tag_299\n        /* \"#utility.yul\":15340:15341   */\n      0x00\n        /* \"#utility.yul\":15329:15338   */\n      dup4\n        /* \"#utility.yul\":15325:15342   */\n      add\n        /* \"#utility.yul\":15316:15322   */\n      dup7\n        /* \"#utility.yul\":15272:15343   */\n      tag_106\n      jump\t// in\n    tag_299:\n        /* \"#utility.yul\":15353:15425   */\n      tag_300\n        /* \"#utility.yul\":15421:15423   */\n      0x20\n        /* \"#utility.yul\":15410:15419   */\n      dup4\n        /* \"#utility.yul\":15406:15424   */\n      add\n        /* \"#utility.yul\":15397:15403   */\n      dup6\n        /* \"#utility.yul\":15353:15425   */\n      tag_103\n      jump\t// in\n    tag_300:\n        /* \"#utility.yul\":15435:15507   */\n      tag_301\n        /* \"#utility.yul\":15503:15505   */\n      0x40\n        /* \"#utility.yul\":15492:15501   */\n      dup4\n        /* \"#utility.yul\":15488:15506   */\n      add\n        /* \"#utility.yul\":15479:15485   */\n      dup5\n        /* \"#utility.yul\":15435:15507   */\n      tag_103\n      jump\t// in\n    tag_301:\n        /* \"#utility.yul\":15072:15514   */\n      swap5\n      swap4\n      pop\n      pop\n      pop\n      pop\n      jump\t// out\n        /* \"#utility.yul\":15520:15852   */\n    tag_91:\n        /* \"#utility.yul\":15641:15645   */\n      0x00\n        /* \"#utility.yul\":15679:15681   */\n      0x40\n        /* \"#utility.yul\":15668:15677   */\n      dup3\n        /* \"#utility.yul\":15664:15682   */\n      add\n        /* \"#utility.yul\":15656:15682   */\n      swap1\n      pop\n        /* \"#utility.yul\":15692:15763   */\n      tag_303\n        /* \"#utility.yul\":15760:15761   */\n      0x00\n        /* \"#utility.yul\":15749:15758   */\n      dup4\n        /* \"#utility.yul\":15745:15762   */\n      add\n        /* \"#utility.yul\":15736:15742   */\n      dup6\n        /* \"#utility.yul\":15692:15763   */\n      tag_106\n      jump\t// in\n    tag_303:\n        /* \"#utility.yul\":15773:15845   */\n      tag_304\n        /* \"#utility.yul\":15841:15843   */\n      0x20\n        /* \"#utility.yul\":15830:15839   */\n      dup4\n        /* \"#utility.yul\":15826:15844   */\n      add\n        /* \"#utility.yul\":15817:15823   */\n      dup5\n        /* \"#utility.yul\":15773:15845   */\n      tag_103\n      jump\t// in\n    tag_304:\n        /* \"#utility.yul\":15520:15852   */\n      swap4\n      swap3\n      pop\n      pop\n      pop\n      jump\t// out\n\n    auxdata: 0xa2646970667358221220015265f09c0439564f963efd4439a3849426787322dcd42a3fceda7d01d0b34b64736f6c634300081a0033\n}\n",
				"bytecode": {
					"linkReferences": {},
					"object": "6080604052348015600e575f80fd5b50335f806101000a81548173ffffffffffffffffffffffffffffffffffffffff021916908373ffffffffffffffffffffffffffffffffffffffff160217905550610fc78061005b5f395ff3fe60806040526004361061007a575f3560e01c80636ecc5d621161004d5780636ecc5d62146101385780639e8d94ca14610162578063b47c18831461018a578063c69b2cf6146101b45761007a565b80631d6be93c1461007e5780631f700641146100bb5780635205f112146100e55780635fd8c71014610122575b5f80fd5b348015610089575f80fd5b506100a4600480360381019061009f919061075c565b6101d0565b6040516100b2929190610806565b60405180910390f35b3480156100c6575f80fd5b506100cf6102e2565b6040516100dc9190610834565b60405180910390f35b3480156100f0575f80fd5b5061010b6004803603810190610106919061075c565b6102e8565b604051610119929190610806565b60405180910390f35b34801561012d575f80fd5b5061013661038e565b005b348015610143575f80fd5b5061014c61048e565b604051610159919061088c565b60405180910390f35b34801561016d575f80fd5b50610188600480360381019061018391906109d1565b6104b1565b005b348015610195575f80fd5b5061019e6105df565b6040516101ab9190610834565b60405180910390f35b6101ce60048036038101906101c9919061075c565b6105e5565b005b60605f6003548310610217576040517f08c379a000000000000000000000000000000000000000000000000000000000815260040161020e90610a75565b60405180910390fd5b5f60025f8581526020019081526020015f206040518060400160405290815f8201805461024390610ac0565b80601f016020809104026020016040519081016040528092919081815260200182805461026f90610ac0565b80156102ba5780601f10610291576101008083540402835291602001916102ba565b820191905f5260205f20905b81548152906001019060200180831161029d57829003601f168201915b505050505081526020016001820154815250509050805f015181602001519250925050915091565b60015481565b6002602052805f5260405f205f91509050805f01805461030790610ac0565b80601f016020809104026020016040519081016040528092919081815260200182805461033390610ac0565b801561037e5780601f106103555761010080835404028352916020019161037e565b820191905f5260205f20905b81548152906001019060200180831161036157829003601f168201915b5050505050908060010154905082565b5f8054906101000a900473ffffffffffffffffffffffffffffffffffffffff1673ffffffffffffffffffffffffffffffffffffffff163373ffffffffffffffffffffffffffffffffffffffff161461041b576040517f08c379a000000000000000000000000000000000000000000000000000000000815260040161041290610b60565b60405180910390fd5b5f60015490505f6001819055505f8054906101000a900473ffffffffffffffffffffffffffffffffffffffff1673ffffffffffffffffffffffffffffffffffffffff166108fc8290811502906040515f60405180830381858888f1935050505015801561048a573d5f803e3d5ffd5b5050565b5f8054906101000a900473ffffffffffffffffffffffffffffffffffffffff1681565b5f8054906101000a900473ffffffffffffffffffffffffffffffffffffffff1673ffffffffffffffffffffffffffffffffffffffff163373ffffffffffffffffffffffffffffffffffffffff161461053e576040517f08c379a000000000000000000000000000000000000000000000000000000000815260040161053590610b60565b60405180910390fd5b60405180604001604052808381526020018281525060025f60035481526020019081526020015f205f820151815f0190816105799190610d1b565b50602082015181600101559050507fb4c91eb178f368ffbe29c74a0af92fbc35d376e2bc365674c81ba755cf8ba52460035483836040516105bc93929190610dea565b60405180910390a160035f8154809291906105d690610e53565b91905055505050565b60035481565b6003548110610629576040517f08c379a000000000000000000000000000000000000000000000000000000000815260040161062090610a75565b60405180910390fd5b5f60025f8381526020019081526020015f2090505f81600101549050803414610687576040517f08c379a000000000000000000000000000000000000000000000000000000000815260040161067e90610ee4565b60405180910390fd5b3460015f8282546106989190610f02565b925050819055507f783d1d9cf8c17b8fae1b9db747241a4e85d05a37f0e040726c2500b52992cd013384836040516106d293929190610f35565b60405180910390a17f6ef95f06320e7a25a04a175ca677b7052bdd97131872c2192525a629f51be770333460405161070b929190610f6a565b60405180910390a1505050565b5f604051905090565b5f80fd5b5f80fd5b5f819050919050565b61073b81610729565b8114610745575f80fd5b50565b5f8135905061075681610732565b92915050565b5f6020828403121561077157610770610721565b5b5f61077e84828501610748565b91505092915050565b5f81519050919050565b5f82825260208201905092915050565b8281835e5f83830152505050565b5f601f19601f8301169050919050565b5f6107c982610787565b6107d38185610791565b93506107e38185602086016107a1565b6107ec816107af565b840191505092915050565b61080081610729565b82525050565b5f6040820190508181035f83015261081e81856107bf565b905061082d60208301846107f7565b9392505050565b5f6020820190506108475f8301846107f7565b92915050565b5f73ffffffffffffffffffffffffffffffffffffffff82169050919050565b5f6108768261084d565b9050919050565b6108868161086c565b82525050565b5f60208201905061089f5f83018461087d565b92915050565b5f80fd5b5f80fd5b7f4e487b71000000000000000000000000000000000000000000000000000000005f52604160045260245ffd5b6108e3826107af565b810181811067ffffffffffffffff82111715610902576109016108ad565b5b80604052505050565b5f610914610718565b905061092082826108da565b919050565b5f67ffffffffffffffff82111561093f5761093e6108ad565b5b610948826107af565b9050602081019050919050565b828183375f83830152505050565b5f61097561097084610925565b61090b565b905082815260208101848484011115610991576109906108a9565b5b61099c848285610955565b509392505050565b5f82601f8301126109b8576109b76108a5565b5b81356109c8848260208601610963565b91505092915050565b5f80604083850312156109e7576109e6610721565b5b5f83013567ffffffffffffffff811115610a0457610a03610725565b5b610a10858286016109a4565b9250506020610a2185828601610748565b9150509250929050565b7f496e76616c696420726964652049442e000000000000000000000000000000005f82015250565b5f610a5f601083610791565b9150610a6a82610a2b565b602082019050919050565b5f6020820190508181035f830152610a8c81610a53565b9050919050565b7f4e487b71000000000000000000000000000000000000000000000000000000005f52602260045260245ffd5b5f6002820490506001821680610ad757607f821691505b602082108103610aea57610ae9610a93565b5b50919050565b7f4f6e6c7920746865206472697665722063616e20706572666f726d20746869735f8201527f20616374696f6e2e000000000000000000000000000000000000000000000000602082015250565b5f610b4a602883610791565b9150610b5582610af0565b604082019050919050565b5f6020820190508181035f830152610b7781610b3e565b9050919050565b5f819050815f5260205f209050919050565b5f6020601f8301049050919050565b5f82821b905092915050565b5f60088302610bda7fffffffffffffffffffffffffffffffffffffffffffffffffffffffffffffffff82610b9f565b610be48683610b9f565b95508019841693508086168417925050509392505050565b5f819050919050565b5f610c1f610c1a610c1584610729565b610bfc565b610729565b9050919050565b5f819050919050565b610c3883610c05565b610c4c610c4482610c26565b848454610bab565b825550505050565b5f90565b610c60610c54565b610c6b818484610c2f565b505050565b5b81811015610c8e57610c835f82610c58565b600181019050610c71565b5050565b601f821115610cd357610ca481610b7e565b610cad84610b90565b81016020851015610cbc578190505b610cd0610cc885610b90565b830182610c70565b50505b505050565b5f82821c905092915050565b5f610cf35f1984600802610cd8565b1980831691505092915050565b5f610d0b8383610ce4565b9150826002028217905092915050565b610d2482610787565b67ffffffffffffffff811115610d3d57610d3c6108ad565b5b610d478254610ac0565b610d52828285610c92565b5f60209050601f831160018114610d83575f8415610d71578287015190505b610d7b8582610d00565b865550610de2565b601f198416610d9186610b7e565b5f5b82811015610db857848901518255600182019150602085019450602081019050610d93565b86831015610dd55784890151610dd1601f891682610ce4565b8355505b6001600288020188555050505b505050505050565b5f606082019050610dfd5f8301866107f7565b8181036020830152610e0f81856107bf565b9050610e1e60408301846107f7565b949350505050565b7f4e487b71000000000000000000000000000000000000000000000000000000005f52601160045260245ffd5b5f610e5d82610729565b91507fffffffffffffffffffffffffffffffffffffffffffffffffffffffffffffffff8203610e8f57610e8e610e26565b5b600182019050919050565b7f496e636f7272656374207061796d656e7420616d6f756e742e000000000000005f82015250565b5f610ece601983610791565b9150610ed982610e9a565b602082019050919050565b5f6020820190508181035f830152610efb81610ec2565b9050919050565b5f610f0c82610729565b9150610f1783610729565b9250828201905080821115610f2f57610f2e610e26565b5b92915050565b5f606082019050610f485f83018661087d565b610f5560208301856107f7565b610f6260408301846107f7565b949350505050565b5f604082019050610f7d5f83018561087d565b610f8a60208301846107f7565b939250505056fea2646970667358221220015265f09c0439564f963efd4439a3849426787322dcd42a3fceda7d01d0b34b64736f6c634300081a0033",
					"opcodes": "PUSH1 0x80 PUSH1 0x40 MSTORE CALLVALUE DUP1 ISZERO PUSH1 0xE JUMPI PUSH0 DUP1 REVERT JUMPDEST POP CALLER PUSH0 DUP1 PUSH2 0x100 EXP DUP2 SLOAD DUP2 PUSH20 0xFFFFFFFFFFFFFFFFFFFFFFFFFFFFFFFFFFFFFFFF MUL NOT AND SWAP1 DUP4 PUSH20 0xFFFFFFFFFFFFFFFFFFFFFFFFFFFFFFFFFFFFFFFF AND MUL OR SWAP1 SSTORE POP PUSH2 0xFC7 DUP1 PUSH2 0x5B PUSH0 CODECOPY PUSH0 RETURN INVALID PUSH1 0x80 PUSH1 0x40 MSTORE PUSH1 0x4 CALLDATASIZE LT PUSH2 0x7A JUMPI PUSH0 CALLDATALOAD PUSH1 0xE0 SHR DUP1 PUSH4 0x6ECC5D62 GT PUSH2 0x4D JUMPI DUP1 PUSH4 0x6ECC5D62 EQ PUSH2 0x138 JUMPI DUP1 PUSH4 0x9E8D94CA EQ PUSH2 0x162 JUMPI DUP1 PUSH4 0xB47C1883 EQ PUSH2 0x18A JUMPI DUP1 PUSH4 0xC69B2CF6 EQ PUSH2 0x1B4 JUMPI PUSH2 0x7A JUMP JUMPDEST DUP1 PUSH4 0x1D6BE93C EQ PUSH2 0x7E JUMPI DUP1 PUSH4 0x1F700641 EQ PUSH2 0xBB JUMPI DUP1 PUSH4 0x5205F112 EQ PUSH2 0xE5 JUMPI DUP1 PUSH4 0x5FD8C710 EQ PUSH2 0x122 JUMPI JUMPDEST PUSH0 DUP1 REVERT JUMPDEST CALLVALUE DUP1 ISZERO PUSH2 0x89 JUMPI PUSH0 DUP1 REVERT JUMPDEST POP PUSH2 0xA4 PUSH1 0x4 DUP1 CALLDATASIZE SUB DUP2 ADD SWAP1 PUSH2 0x9F SWAP2 SWAP1 PUSH2 0x75C JUMP JUMPDEST PUSH2 0x1D0 JUMP JUMPDEST PUSH1 0x40 MLOAD PUSH2 0xB2 SWAP3 SWAP2 SWAP1 PUSH2 0x806 JUMP JUMPDEST PUSH1 0x40 MLOAD DUP1 SWAP2 SUB SWAP1 RETURN JUMPDEST CALLVALUE DUP1 ISZERO PUSH2 0xC6 JUMPI PUSH0 DUP1 REVERT JUMPDEST POP PUSH2 0xCF PUSH2 0x2E2 JUMP JUMPDEST PUSH1 0x40 MLOAD PUSH2 0xDC SWAP2 SWAP1 PUSH2 0x834 JUMP JUMPDEST PUSH1 0x40 MLOAD DUP1 SWAP2 SUB SWAP1 RETURN JUMPDEST CALLVALUE DUP1 ISZERO PUSH2 0xF0 JUMPI PUSH0 DUP1 REVERT JUMPDEST POP PUSH2 0x10B PUSH1 0x4 DUP1 CALLDATASIZE SUB DUP2 ADD SWAP1 PUSH2 0x106 SWAP2 SWAP1 PUSH2 0x75C JUMP JUMPDEST PUSH2 0x2E8 JUMP JUMPDEST PUSH1 0x40 MLOAD PUSH2 0x119 SWAP3 SWAP2 SWAP1 PUSH2 0x806 JUMP JUMPDEST PUSH1 0x40 MLOAD DUP1 SWAP2 SUB SWAP1 RETURN JUMPDEST CALLVALUE DUP1 ISZERO PUSH2 0x12D JUMPI PUSH0 DUP1 REVERT JUMPDEST POP PUSH2 0x136 PUSH2 0x38E JUMP JUMPDEST STOP JUMPDEST CALLVALUE DUP1 ISZERO PUSH2 0x143 JUMPI PUSH0 DUP1 REVERT JUMPDEST POP PUSH2 0x14C PUSH2 0x48E JUMP JUMPDEST PUSH1 0x40 MLOAD PUSH2 0x159 SWAP2 SWAP1 PUSH2 0x88C JUMP JUMPDEST PUSH1 0x40 MLOAD DUP1 SWAP2 SUB SWAP1 RETURN JUMPDEST CALLVALUE DUP1 ISZERO PUSH2 0x16D JUMPI PUSH0 DUP1 REVERT JUMPDEST POP PUSH2 0x188 PUSH1 0x4 DUP1 CALLDATASIZE SUB DUP2 ADD SWAP1 PUSH2 0x183 SWAP2 SWAP1 PUSH2 0x9D1 JUMP JUMPDEST PUSH2 0x4B1 JUMP JUMPDEST STOP JUMPDEST CALLVALUE DUP1 ISZERO PUSH2 0x195 JUMPI PUSH0 DUP1 REVERT JUMPDEST POP PUSH2 0x19E PUSH2 0x5DF JUMP JUMPDEST PUSH1 0x40 MLOAD PUSH2 0x1AB SWAP2 SWAP1 PUSH2 0x834 JUMP JUMPDEST PUSH1 0x40 MLOAD DUP1 SWAP2 SUB SWAP1 RETURN JUMPDEST PUSH2 0x1CE PUSH1 0x4 DUP1 CALLDATASIZE SUB DUP2 ADD SWAP1 PUSH2 0x1C9 SWAP2 SWAP1 PUSH2 0x75C JUMP JUMPDEST PUSH2 0x5E5 JUMP JUMPDEST STOP JUMPDEST PUSH1 0x60 PUSH0 PUSH1 0x3 SLOAD DUP4 LT PUSH2 0x217 JUMPI PUSH1 0x40 MLOAD PUSH32 0x8C379A000000000000000000000000000000000000000000000000000000000 DUP2 MSTORE PUSH1 0x4 ADD PUSH2 0x20E SWAP1 PUSH2 0xA75 JUMP JUMPDEST PUSH1 0x40 MLOAD DUP1 SWAP2 SUB SWAP1 REVERT JUMPDEST PUSH0 PUSH1 0x2 PUSH0 DUP6 DUP2 MSTORE PUSH1 0x20 ADD SWAP1 DUP2 MSTORE PUSH1 0x20 ADD PUSH0 KECCAK256 PUSH1 0x40 MLOAD DUP1 PUSH1 0x40 ADD PUSH1 0x40 MSTORE SWAP1 DUP2 PUSH0 DUP3 ADD DUP1 SLOAD PUSH2 0x243 SWAP1 PUSH2 0xAC0 JUMP JUMPDEST DUP1 PUSH1 0x1F ADD PUSH1 0x20 DUP1 SWAP2 DIV MUL PUSH1 0x20 ADD PUSH1 0x40 MLOAD SWAP1 DUP2 ADD PUSH1 0x40 MSTORE DUP1 SWAP3 SWAP2 SWAP1 DUP2 DUP2 MSTORE PUSH1 0x20 ADD DUP3 DUP1 SLOAD PUSH2 0x26F SWAP1 PUSH2 0xAC0 JUMP JUMPDEST DUP1 ISZERO PUSH2 0x2BA JUMPI DUP1 PUSH1 0x1F LT PUSH2 0x291 JUMPI PUSH2 0x100 DUP1 DUP4 SLOAD DIV MUL DUP4 MSTORE SWAP2 PUSH1 0x20 ADD SWAP2 PUSH2 0x2BA JUMP JUMPDEST DUP3 ADD SWAP2 SWAP1 PUSH0 MSTORE PUSH1 0x20 PUSH0 KECCAK256 SWAP1 JUMPDEST DUP2 SLOAD DUP2 MSTORE SWAP1 PUSH1 0x1 ADD SWAP1 PUSH1 0x20 ADD DUP1 DUP4 GT PUSH2 0x29D JUMPI DUP3 SWAP1 SUB PUSH1 0x1F AND DUP3 ADD SWAP2 JUMPDEST POP POP POP POP POP DUP2 MSTORE PUSH1 0x20 ADD PUSH1 0x1 DUP3 ADD SLOAD DUP2 MSTORE POP POP SWAP1 POP DUP1 PUSH0 ADD MLOAD DUP2 PUSH1 0x20 ADD MLOAD SWAP3 POP SWAP3 POP POP SWAP2 POP SWAP2 JUMP JUMPDEST PUSH1 0x1 SLOAD DUP2 JUMP JUMPDEST PUSH1 0x2 PUSH1 0x20 MSTORE DUP1 PUSH0 MSTORE PUSH1 0x40 PUSH0 KECCAK256 PUSH0 SWAP2 POP SWAP1 POP DUP1 PUSH0 ADD DUP1 SLOAD PUSH2 0x307 SWAP1 PUSH2 0xAC0 JUMP JUMPDEST DUP1 PUSH1 0x1F ADD PUSH1 0x20 DUP1 SWAP2 DIV MUL PUSH1 0x20 ADD PUSH1 0x40 MLOAD SWAP1 DUP2 ADD PUSH1 0x40 MSTORE DUP1 SWAP3 SWAP2 SWAP1 DUP2 DUP2 MSTORE PUSH1 0x20 ADD DUP3 DUP1 SLOAD PUSH2 0x333 SWAP1 PUSH2 0xAC0 JUMP JUMPDEST DUP1 ISZERO PUSH2 0x37E JUMPI DUP1 PUSH1 0x1F LT PUSH2 0x355 JUMPI PUSH2 0x100 DUP1 DUP4 SLOAD DIV MUL DUP4 MSTORE SWAP2 PUSH1 0x20 ADD SWAP2 PUSH2 0x37E JUMP JUMPDEST DUP3 ADD SWAP2 SWAP1 PUSH0 MSTORE PUSH1 0x20 PUSH0 KECCAK256 SWAP1 JUMPDEST DUP2 SLOAD DUP2 MSTORE SWAP1 PUSH1 0x1 ADD SWAP1 PUSH1 0x20 ADD DUP1 DUP4 GT PUSH2 0x361 JUMPI DUP3 SWAP1 SUB PUSH1 0x1F AND DUP3 ADD SWAP2 JUMPDEST POP POP POP POP POP SWAP1 DUP1 PUSH1 0x1 ADD SLOAD SWAP1 POP DUP3 JUMP JUMPDEST PUSH0 DUP1 SLOAD SWAP1 PUSH2 0x100 EXP SWAP1 DIV PUSH20 0xFFFFFFFFFFFFFFFFFFFFFFFFFFFFFFFFFFFFFFFF AND PUSH20 0xFFFFFFFFFFFFFFFFFFFFFFFFFFFFFFFFFFFFFFFF AND CALLER PUSH20 0xFFFFFFFFFFFFFFFFFFFFFFFFFFFFFFFFFFFFFFFF AND EQ PUSH2 0x41B JUMPI PUSH1 0x40 MLOAD PUSH32 0x8C379A000000000000000000000000000000000000000000000000000000000 DUP2 MSTORE PUSH1 0x4 ADD PUSH2 0x412 SWAP1 PUSH2 0xB60 JUMP JUMPDEST PUSH1 0x40 MLOAD DUP1 SWAP2 SUB SWAP1 REVERT JUMPDEST PUSH0 PUSH1 0x1 SLOAD SWAP1 POP PUSH0 PUSH1 0x1 DUP2 SWAP1 SSTORE POP PUSH0 DUP1 SLOAD SWAP1 PUSH2 0x100 EXP SWAP1 DIV PUSH20 0xFFFFFFFFFFFFFFFFFFFFFFFFFFFFFFFFFFFFFFFF AND PUSH20 0xFFFFFFFFFFFFFFFFFFFFFFFFFFFFFFFFFFFFFFFF AND PUSH2 0x8FC DUP3 SWAP1 DUP2 ISZERO MUL SWAP1 PUSH1 0x40 MLOAD PUSH0 PUSH1 0x40 MLOAD DUP1 DUP4 SUB DUP2 DUP6 DUP9 DUP9 CALL SWAP4 POP POP POP POP ISZERO DUP1 ISZERO PUSH2 0x48A JUMPI RETURNDATASIZE PUSH0 DUP1 RETURNDATACOPY RETURNDATASIZE PUSH0 REVERT JUMPDEST POP POP JUMP JUMPDEST PUSH0 DUP1 SLOAD SWAP1 PUSH2 0x100 EXP SWAP1 DIV PUSH20 0xFFFFFFFFFFFFFFFFFFFFFFFFFFFFFFFFFFFFFFFF AND DUP2 JUMP JUMPDEST PUSH0 DUP1 SLOAD SWAP1 PUSH2 0x100 EXP SWAP1 DIV PUSH20 0xFFFFFFFFFFFFFFFFFFFFFFFFFFFFFFFFFFFFFFFF AND PUSH20 0xFFFFFFFFFFFFFFFFFFFFFFFFFFFFFFFFFFFFFFFF AND CALLER PUSH20 0xFFFFFFFFFFFFFFFFFFFFFFFFFFFFFFFFFFFFFFFF AND EQ PUSH2 0x53E JUMPI PUSH1 0x40 MLOAD PUSH32 0x8C379A000000000000000000000000000000000000000000000000000000000 DUP2 MSTORE PUSH1 0x4 ADD PUSH2 0x535 SWAP1 PUSH2 0xB60 JUMP JUMPDEST PUSH1 0x40 MLOAD DUP1 SWAP2 SUB SWAP1 REVERT JUMPDEST PUSH1 0x40 MLOAD DUP1 PUSH1 0x40 ADD PUSH1 0x40 MSTORE DUP1 DUP4 DUP2 MSTORE PUSH1 0x20 ADD DUP3 DUP2 MSTORE POP PUSH1 0x2 PUSH0 PUSH1 0x3 SLOAD DUP2 MSTORE PUSH1 0x20 ADD SWAP1 DUP2 MSTORE PUSH1 0x20 ADD PUSH0 KECCAK256 PUSH0 DUP3 ADD MLOAD DUP2 PUSH0 ADD SWAP1 DUP2 PUSH2 0x579 SWAP2 SWAP1 PUSH2 0xD1B JUMP JUMPDEST POP PUSH1 0x20 DUP3 ADD MLOAD DUP2 PUSH1 0x1 ADD SSTORE SWAP1 POP POP PUSH32 0xB4C91EB178F368FFBE29C74A0AF92FBC35D376E2BC365674C81BA755CF8BA524 PUSH1 0x3 SLOAD DUP4 DUP4 PUSH1 0x40 MLOAD PUSH2 0x5BC SWAP4 SWAP3 SWAP2 SWAP1 PUSH2 0xDEA JUMP JUMPDEST PUSH1 0x40 MLOAD DUP1 SWAP2 SUB SWAP1 LOG1 PUSH1 0x3 PUSH0 DUP2 SLOAD DUP1 SWAP3 SWAP2 SWAP1 PUSH2 0x5D6 SWAP1 PUSH2 0xE53 JUMP JUMPDEST SWAP2 SWAP1 POP SSTORE POP POP POP JUMP JUMPDEST PUSH1 0x3 SLOAD DUP2 JUMP JUMPDEST PUSH1 0x3 SLOAD DUP2 LT PUSH2 0x629 JUMPI PUSH1 0x40 MLOAD PUSH32 0x8C379A000000000000000000000000000000000000000000000000000000000 DUP2 MSTORE PUSH1 0x4 ADD PUSH2 0x620 SWAP1 PUSH2 0xA75 JUMP JUMPDEST PUSH1 0x40 MLOAD DUP1 SWAP2 SUB SWAP1 REVERT JUMPDEST PUSH0 PUSH1 0x2 PUSH0 DUP4 DUP2 MSTORE PUSH1 0x20 ADD SWAP1 DUP2 MSTORE PUSH1 0x20 ADD PUSH0 KECCAK256 SWAP1 POP PUSH0 DUP2 PUSH1 0x1 ADD SLOAD SWAP1 POP DUP1 CALLVALUE EQ PUSH2 0x687 JUMPI PUSH1 0x40 MLOAD PUSH32 0x8C379A000000000000000000000000000000000000000000000000000000000 DUP2 MSTORE PUSH1 0x4 ADD PUSH2 0x67E SWAP1 PUSH2 0xEE4 JUMP JUMPDEST PUSH1 0x40 MLOAD DUP1 SWAP2 SUB SWAP1 REVERT JUMPDEST CALLVALUE PUSH1 0x1 PUSH0 DUP3 DUP3 SLOAD PUSH2 0x698 SWAP2 SWAP1 PUSH2 0xF02 JUMP JUMPDEST SWAP3 POP POP DUP2 SWAP1 SSTORE POP PUSH32 0x783D1D9CF8C17B8FAE1B9DB747241A4E85D05A37F0E040726C2500B52992CD01 CALLER DUP5 DUP4 PUSH1 0x40 MLOAD PUSH2 0x6D2 SWAP4 SWAP3 SWAP2 SWAP1 PUSH2 0xF35 JUMP JUMPDEST PUSH1 0x40 MLOAD DUP1 SWAP2 SUB SWAP1 LOG1 PUSH32 0x6EF95F06320E7A25A04A175CA677B7052BDD97131872C2192525A629F51BE770 CALLER CALLVALUE PUSH1 0x40 MLOAD PUSH2 0x70B SWAP3 SWAP2 SWAP1 PUSH2 0xF6A JUMP JUMPDEST PUSH1 0x40 MLOAD DUP1 SWAP2 SUB SWAP1 LOG1 POP POP POP JUMP JUMPDEST PUSH0 PUSH1 0x40 MLOAD SWAP1 POP SWAP1 JUMP JUMPDEST PUSH0 DUP1 REVERT JUMPDEST PUSH0 DUP1 REVERT JUMPDEST PUSH0 DUP2 SWAP1 POP SWAP2 SWAP1 POP JUMP JUMPDEST PUSH2 0x73B DUP2 PUSH2 0x729 JUMP JUMPDEST DUP2 EQ PUSH2 0x745 JUMPI PUSH0 DUP1 REVERT JUMPDEST POP JUMP JUMPDEST PUSH0 DUP2 CALLDATALOAD SWAP1 POP PUSH2 0x756 DUP2 PUSH2 0x732 JUMP JUMPDEST SWAP3 SWAP2 POP POP JUMP JUMPDEST PUSH0 PUSH1 0x20 DUP3 DUP5 SUB SLT ISZERO PUSH2 0x771 JUMPI PUSH2 0x770 PUSH2 0x721 JUMP JUMPDEST JUMPDEST PUSH0 PUSH2 0x77E DUP5 DUP3 DUP6 ADD PUSH2 0x748 JUMP JUMPDEST SWAP2 POP POP SWAP3 SWAP2 POP POP JUMP JUMPDEST PUSH0 DUP2 MLOAD SWAP1 POP SWAP2 SWAP1 POP JUMP JUMPDEST PUSH0 DUP3 DUP3 MSTORE PUSH1 0x20 DUP3 ADD SWAP1 POP SWAP3 SWAP2 POP POP JUMP JUMPDEST DUP3 DUP2 DUP4 MCOPY PUSH0 DUP4 DUP4 ADD MSTORE POP POP POP JUMP JUMPDEST PUSH0 PUSH1 0x1F NOT PUSH1 0x1F DUP4 ADD AND SWAP1 POP SWAP2 SWAP1 POP JUMP JUMPDEST PUSH0 PUSH2 0x7C9 DUP3 PUSH2 0x787 JUMP JUMPDEST PUSH2 0x7D3 DUP2 DUP6 PUSH2 0x791 JUMP JUMPDEST SWAP4 POP PUSH2 0x7E3 DUP2 DUP6 PUSH1 0x20 DUP7 ADD PUSH2 0x7A1 JUMP JUMPDEST PUSH2 0x7EC DUP2 PUSH2 0x7AF JUMP JUMPDEST DUP5 ADD SWAP2 POP POP SWAP3 SWAP2 POP POP JUMP JUMPDEST PUSH2 0x800 DUP2 PUSH2 0x729 JUMP JUMPDEST DUP3 MSTORE POP POP JUMP JUMPDEST PUSH0 PUSH1 0x40 DUP3 ADD SWAP1 POP DUP2 DUP2 SUB PUSH0 DUP4 ADD MSTORE PUSH2 0x81E DUP2 DUP6 PUSH2 0x7BF JUMP JUMPDEST SWAP1 POP PUSH2 0x82D PUSH1 0x20 DUP4 ADD DUP5 PUSH2 0x7F7 JUMP JUMPDEST SWAP4 SWAP3 POP POP POP JUMP JUMPDEST PUSH0 PUSH1 0x20 DUP3 ADD SWAP1 POP PUSH2 0x847 PUSH0 DUP4 ADD DUP5 PUSH2 0x7F7 JUMP JUMPDEST SWAP3 SWAP2 POP POP JUMP JUMPDEST PUSH0 PUSH20 0xFFFFFFFFFFFFFFFFFFFFFFFFFFFFFFFFFFFFFFFF DUP3 AND SWAP1 POP SWAP2 SWAP1 POP JUMP JUMPDEST PUSH0 PUSH2 0x876 DUP3 PUSH2 0x84D JUMP JUMPDEST SWAP1 POP SWAP2 SWAP1 POP JUMP JUMPDEST PUSH2 0x886 DUP2 PUSH2 0x86C JUMP JUMPDEST DUP3 MSTORE POP POP JUMP JUMPDEST PUSH0 PUSH1 0x20 DUP3 ADD SWAP1 POP PUSH2 0x89F PUSH0 DUP4 ADD DUP5 PUSH2 0x87D JUMP JUMPDEST SWAP3 SWAP2 POP POP JUMP JUMPDEST PUSH0 DUP1 REVERT JUMPDEST PUSH0 DUP1 REVERT JUMPDEST PUSH32 0x4E487B7100000000000000000000000000000000000000000000000000000000 PUSH0 MSTORE PUSH1 0x41 PUSH1 0x4 MSTORE PUSH1 0x24 PUSH0 REVERT JUMPDEST PUSH2 0x8E3 DUP3 PUSH2 0x7AF JUMP JUMPDEST DUP2 ADD DUP2 DUP2 LT PUSH8 0xFFFFFFFFFFFFFFFF DUP3 GT OR ISZERO PUSH2 0x902 JUMPI PUSH2 0x901 PUSH2 0x8AD JUMP JUMPDEST JUMPDEST DUP1 PUSH1 0x40 MSTORE POP POP POP JUMP JUMPDEST PUSH0 PUSH2 0x914 PUSH2 0x718 JUMP JUMPDEST SWAP1 POP PUSH2 0x920 DUP3 DUP3 PUSH2 0x8DA JUMP JUMPDEST SWAP2 SWAP1 POP JUMP JUMPDEST PUSH0 PUSH8 0xFFFFFFFFFFFFFFFF DUP3 GT ISZERO PUSH2 0x93F JUMPI PUSH2 0x93E PUSH2 0x8AD JUMP JUMPDEST JUMPDEST PUSH2 0x948 DUP3 PUSH2 0x7AF JUMP JUMPDEST SWAP1 POP PUSH1 0x20 DUP2 ADD SWAP1 POP SWAP2 SWAP1 POP JUMP JUMPDEST DUP3 DUP2 DUP4 CALLDATACOPY PUSH0 DUP4 DUP4 ADD MSTORE POP POP POP JUMP JUMPDEST PUSH0 PUSH2 0x975 PUSH2 0x970 DUP5 PUSH2 0x925 JUMP JUMPDEST PUSH2 0x90B JUMP JUMPDEST SWAP1 POP DUP3 DUP2 MSTORE PUSH1 0x20 DUP2 ADD DUP5 DUP5 DUP5 ADD GT ISZERO PUSH2 0x991 JUMPI PUSH2 0x990 PUSH2 0x8A9 JUMP JUMPDEST JUMPDEST PUSH2 0x99C DUP5 DUP3 DUP6 PUSH2 0x955 JUMP JUMPDEST POP SWAP4 SWAP3 POP POP POP JUMP JUMPDEST PUSH0 DUP3 PUSH1 0x1F DUP4 ADD SLT PUSH2 0x9B8 JUMPI PUSH2 0x9B7 PUSH2 0x8A5 JUMP JUMPDEST JUMPDEST DUP2 CALLDATALOAD PUSH2 0x9C8 DUP5 DUP3 PUSH1 0x20 DUP7 ADD PUSH2 0x963 JUMP JUMPDEST SWAP2 POP POP SWAP3 SWAP2 POP POP JUMP JUMPDEST PUSH0 DUP1 PUSH1 0x40 DUP4 DUP6 SUB SLT ISZERO PUSH2 0x9E7 JUMPI PUSH2 0x9E6 PUSH2 0x721 JUMP JUMPDEST JUMPDEST PUSH0 DUP4 ADD CALLDATALOAD PUSH8 0xFFFFFFFFFFFFFFFF DUP2 GT ISZERO PUSH2 0xA04 JUMPI PUSH2 0xA03 PUSH2 0x725 JUMP JUMPDEST JUMPDEST PUSH2 0xA10 DUP6 DUP3 DUP7 ADD PUSH2 0x9A4 JUMP JUMPDEST SWAP3 POP POP PUSH1 0x20 PUSH2 0xA21 DUP6 DUP3 DUP7 ADD PUSH2 0x748 JUMP JUMPDEST SWAP2 POP POP SWAP3 POP SWAP3 SWAP1 POP JUMP JUMPDEST PUSH32 0x496E76616C696420726964652049442E00000000000000000000000000000000 PUSH0 DUP3 ADD MSTORE POP JUMP JUMPDEST PUSH0 PUSH2 0xA5F PUSH1 0x10 DUP4 PUSH2 0x791 JUMP JUMPDEST SWAP2 POP PUSH2 0xA6A DUP3 PUSH2 0xA2B JUMP JUMPDEST PUSH1 0x20 DUP3 ADD SWAP1 POP SWAP2 SWAP1 POP JUMP JUMPDEST PUSH0 PUSH1 0x20 DUP3 ADD SWAP1 POP DUP2 DUP2 SUB PUSH0 DUP4 ADD MSTORE PUSH2 0xA8C DUP2 PUSH2 0xA53 JUMP JUMPDEST SWAP1 POP SWAP2 SWAP1 POP JUMP JUMPDEST PUSH32 0x4E487B7100000000000000000000000000000000000000000000000000000000 PUSH0 MSTORE PUSH1 0x22 PUSH1 0x4 MSTORE PUSH1 0x24 PUSH0 REVERT JUMPDEST PUSH0 PUSH1 0x2 DUP3 DIV SWAP1 POP PUSH1 0x1 DUP3 AND DUP1 PUSH2 0xAD7 JUMPI PUSH1 0x7F DUP3 AND SWAP2 POP JUMPDEST PUSH1 0x20 DUP3 LT DUP2 SUB PUSH2 0xAEA JUMPI PUSH2 0xAE9 PUSH2 0xA93 JUMP JUMPDEST JUMPDEST POP SWAP2 SWAP1 POP JUMP JUMPDEST PUSH32 0x4F6E6C7920746865206472697665722063616E20706572666F726D2074686973 PUSH0 DUP3 ADD MSTORE PUSH32 0x20616374696F6E2E000000000000000000000000000000000000000000000000 PUSH1 0x20 DUP3 ADD MSTORE POP JUMP JUMPDEST PUSH0 PUSH2 0xB4A PUSH1 0x28 DUP4 PUSH2 0x791 JUMP JUMPDEST SWAP2 POP PUSH2 0xB55 DUP3 PUSH2 0xAF0 JUMP JUMPDEST PUSH1 0x40 DUP3 ADD SWAP1 POP SWAP2 SWAP1 POP JUMP JUMPDEST PUSH0 PUSH1 0x20 DUP3 ADD SWAP1 POP DUP2 DUP2 SUB PUSH0 DUP4 ADD MSTORE PUSH2 0xB77 DUP2 PUSH2 0xB3E JUMP JUMPDEST SWAP1 POP SWAP2 SWAP1 POP JUMP JUMPDEST PUSH0 DUP2 SWAP1 POP DUP2 PUSH0 MSTORE PUSH1 0x20 PUSH0 KECCAK256 SWAP1 POP SWAP2 SWAP1 POP JUMP JUMPDEST PUSH0 PUSH1 0x20 PUSH1 0x1F DUP4 ADD DIV SWAP1 POP SWAP2 SWAP1 POP JUMP JUMPDEST PUSH0 DUP3 DUP3 SHL SWAP1 POP SWAP3 SWAP2 POP POP JUMP JUMPDEST PUSH0 PUSH1 0x8 DUP4 MUL PUSH2 0xBDA PUSH32 0xFFFFFFFFFFFFFFFFFFFFFFFFFFFFFFFFFFFFFFFFFFFFFFFFFFFFFFFFFFFFFFFF DUP3 PUSH2 0xB9F JUMP JUMPDEST PUSH2 0xBE4 DUP7 DUP4 PUSH2 0xB9F JUMP JUMPDEST SWAP6 POP DUP1 NOT DUP5 AND SWAP4 POP DUP1 DUP7 AND DUP5 OR SWAP3 POP POP POP SWAP4 SWAP3 POP POP POP JUMP JUMPDEST PUSH0 DUP2 SWAP1 POP SWAP2 SWAP1 POP JUMP JUMPDEST PUSH0 PUSH2 0xC1F PUSH2 0xC1A PUSH2 0xC15 DUP5 PUSH2 0x729 JUMP JUMPDEST PUSH2 0xBFC JUMP JUMPDEST PUSH2 0x729 JUMP JUMPDEST SWAP1 POP SWAP2 SWAP1 POP JUMP JUMPDEST PUSH0 DUP2 SWAP1 POP SWAP2 SWAP1 POP JUMP JUMPDEST PUSH2 0xC38 DUP4 PUSH2 0xC05 JUMP JUMPDEST PUSH2 0xC4C PUSH2 0xC44 DUP3 PUSH2 0xC26 JUMP JUMPDEST DUP5 DUP5 SLOAD PUSH2 0xBAB JUMP JUMPDEST DUP3 SSTORE POP POP POP POP JUMP JUMPDEST PUSH0 SWAP1 JUMP JUMPDEST PUSH2 0xC60 PUSH2 0xC54 JUMP JUMPDEST PUSH2 0xC6B DUP2 DUP5 DUP5 PUSH2 0xC2F JUMP JUMPDEST POP POP POP JUMP JUMPDEST JUMPDEST DUP2 DUP2 LT ISZERO PUSH2 0xC8E JUMPI PUSH2 0xC83 PUSH0 DUP3 PUSH2 0xC58 JUMP JUMPDEST PUSH1 0x1 DUP2 ADD SWAP1 POP PUSH2 0xC71 JUMP JUMPDEST POP POP JUMP JUMPDEST PUSH1 0x1F DUP3 GT ISZERO PUSH2 0xCD3 JUMPI PUSH2 0xCA4 DUP2 PUSH2 0xB7E JUMP JUMPDEST PUSH2 0xCAD DUP5 PUSH2 0xB90 JUMP JUMPDEST DUP2 ADD PUSH1 0x20 DUP6 LT ISZERO PUSH2 0xCBC JUMPI DUP2 SWAP1 POP JUMPDEST PUSH2 0xCD0 PUSH2 0xCC8 DUP6 PUSH2 0xB90 JUMP JUMPDEST DUP4 ADD DUP3 PUSH2 0xC70 JUMP JUMPDEST POP POP JUMPDEST POP POP POP JUMP JUMPDEST PUSH0 DUP3 DUP3 SHR SWAP1 POP SWAP3 SWAP2 POP POP JUMP JUMPDEST PUSH0 PUSH2 0xCF3 PUSH0 NOT DUP5 PUSH1 0x8 MUL PUSH2 0xCD8 JUMP JUMPDEST NOT DUP1 DUP4 AND SWAP2 POP POP SWAP3 SWAP2 POP POP JUMP JUMPDEST PUSH0 PUSH2 0xD0B DUP4 DUP4 PUSH2 0xCE4 JUMP JUMPDEST SWAP2 POP DUP3 PUSH1 0x2 MUL DUP3 OR SWAP1 POP SWAP3 SWAP2 POP POP JUMP JUMPDEST PUSH2 0xD24 DUP3 PUSH2 0x787 JUMP JUMPDEST PUSH8 0xFFFFFFFFFFFFFFFF DUP2 GT ISZERO PUSH2 0xD3D JUMPI PUSH2 0xD3C PUSH2 0x8AD JUMP JUMPDEST JUMPDEST PUSH2 0xD47 DUP3 SLOAD PUSH2 0xAC0 JUMP JUMPDEST PUSH2 0xD52 DUP3 DUP3 DUP6 PUSH2 0xC92 JUMP JUMPDEST PUSH0 PUSH1 0x20 SWAP1 POP PUSH1 0x1F DUP4 GT PUSH1 0x1 DUP2 EQ PUSH2 0xD83 JUMPI PUSH0 DUP5 ISZERO PUSH2 0xD71 JUMPI DUP3 DUP8 ADD MLOAD SWAP1 POP JUMPDEST PUSH2 0xD7B DUP6 DUP3 PUSH2 0xD00 JUMP JUMPDEST DUP7 SSTORE POP PUSH2 0xDE2 JUMP JUMPDEST PUSH1 0x1F NOT DUP5 AND PUSH2 0xD91 DUP7 PUSH2 0xB7E JUMP JUMPDEST PUSH0 JUMPDEST DUP3 DUP2 LT ISZERO PUSH2 0xDB8 JUMPI DUP5 DUP10 ADD MLOAD DUP3 SSTORE PUSH1 0x1 DUP3 ADD SWAP2 POP PUSH1 0x20 DUP6 ADD SWAP5 POP PUSH1 0x20 DUP2 ADD SWAP1 POP PUSH2 0xD93 JUMP JUMPDEST DUP7 DUP4 LT ISZERO PUSH2 0xDD5 JUMPI DUP5 DUP10 ADD MLOAD PUSH2 0xDD1 PUSH1 0x1F DUP10 AND DUP3 PUSH2 0xCE4 JUMP JUMPDEST DUP4 SSTORE POP JUMPDEST PUSH1 0x1 PUSH1 0x2 DUP9 MUL ADD DUP9 SSTORE POP POP POP JUMPDEST POP POP POP POP POP POP JUMP JUMPDEST PUSH0 PUSH1 0x60 DUP3 ADD SWAP1 POP PUSH2 0xDFD PUSH0 DUP4 ADD DUP7 PUSH2 0x7F7 JUMP JUMPDEST DUP2 DUP2 SUB PUSH1 0x20 DUP4 ADD MSTORE PUSH2 0xE0F DUP2 DUP6 PUSH2 0x7BF JUMP JUMPDEST SWAP1 POP PUSH2 0xE1E PUSH1 0x40 DUP4 ADD DUP5 PUSH2 0x7F7 JUMP JUMPDEST SWAP5 SWAP4 POP POP POP POP JUMP JUMPDEST PUSH32 0x4E487B7100000000000000000000000000000000000000000000000000000000 PUSH0 MSTORE PUSH1 0x11 PUSH1 0x4 MSTORE PUSH1 0x24 PUSH0 REVERT JUMPDEST PUSH0 PUSH2 0xE5D DUP3 PUSH2 0x729 JUMP JUMPDEST SWAP2 POP PUSH32 0xFFFFFFFFFFFFFFFFFFFFFFFFFFFFFFFFFFFFFFFFFFFFFFFFFFFFFFFFFFFFFFFF DUP3 SUB PUSH2 0xE8F JUMPI PUSH2 0xE8E PUSH2 0xE26 JUMP JUMPDEST JUMPDEST PUSH1 0x1 DUP3 ADD SWAP1 POP SWAP2 SWAP1 POP JUMP JUMPDEST PUSH32 0x496E636F7272656374207061796D656E7420616D6F756E742E00000000000000 PUSH0 DUP3 ADD MSTORE POP JUMP JUMPDEST PUSH0 PUSH2 0xECE PUSH1 0x19 DUP4 PUSH2 0x791 JUMP JUMPDEST SWAP2 POP PUSH2 0xED9 DUP3 PUSH2 0xE9A JUMP JUMPDEST PUSH1 0x20 DUP3 ADD SWAP1 POP SWAP2 SWAP1 POP JUMP JUMPDEST PUSH0 PUSH1 0x20 DUP3 ADD SWAP1 POP DUP2 DUP2 SUB PUSH0 DUP4 ADD MSTORE PUSH2 0xEFB DUP2 PUSH2 0xEC2 JUMP JUMPDEST SWAP1 POP SWAP2 SWAP1 POP JUMP JUMPDEST PUSH0 PUSH2 0xF0C DUP3 PUSH2 0x729 JUMP JUMPDEST SWAP2 POP PUSH2 0xF17 DUP4 PUSH2 0x729 JUMP JUMPDEST SWAP3 POP DUP3 DUP3 ADD SWAP1 POP DUP1 DUP3 GT ISZERO PUSH2 0xF2F JUMPI PUSH2 0xF2E PUSH2 0xE26 JUMP JUMPDEST JUMPDEST SWAP3 SWAP2 POP POP JUMP JUMPDEST PUSH0 PUSH1 0x60 DUP3 ADD SWAP1 POP PUSH2 0xF48 PUSH0 DUP4 ADD DUP7 PUSH2 0x87D JUMP JUMPDEST PUSH2 0xF55 PUSH1 0x20 DUP4 ADD DUP6 PUSH2 0x7F7 JUMP JUMPDEST PUSH2 0xF62 PUSH1 0x40 DUP4 ADD DUP5 PUSH2 0x7F7 JUMP JUMPDEST SWAP5 SWAP4 POP POP POP POP JUMP JUMPDEST PUSH0 PUSH1 0x40 DUP3 ADD SWAP1 POP PUSH2 0xF7D PUSH0 DUP4 ADD DUP6 PUSH2 0x87D JUMP JUMPDEST PUSH2 0xF8A PUSH1 0x20 DUP4 ADD DUP5 PUSH2 0x7F7 JUMP JUMPDEST SWAP4 SWAP3 POP POP POP JUMP INVALID LOG2 PUSH5 0x6970667358 0x22 SLT KECCAK256 ADD MSTORE PUSH6 0xF09C0439564F SWAP7 RETURNDATACOPY REVERT PREVRANDAO CODECOPY LOG3 DUP5 SWAP5 0x26 PUSH25 0x7322DCD42A3FCEDA7D01D0B34B64736F6C634300081A003300 "
				},
				"gasEstimates": {
					"creation": {
						"codeDepositCost": "807800",
						"executionCost": "25107",
						"totalCost": "832907"
					},
					"external": {
						"addRide(string,uint256)": "infinite",
						"bookRide(uint256)": "infinite",
						"driver()": "2505",
						"driverBalance()": "2448",
						"getRideDetails(uint256)": "infinite",
						"rideCount()": "2469",
						"rides(uint256)": "infinite",
						"withdrawBalance()": "infinite"
					}
				},
				"methodIdentifiers": {
					"addRide(string,uint256)": "9e8d94ca",
					"bookRide(uint256)": "c69b2cf6",
					"driver()": "6ecc5d62",
					"driverBalance()": "1f700641",
					"getRideDetails(uint256)": "1d6be93c",
					"rideCount()": "b47c1883",
					"rides(uint256)": "5205f112",
					"withdrawBalance()": "5fd8c710"
				}
			},
			"storageLayout": {
				"storage": [
					{
						"astId": 3,
						"contract": "contracts/4_TaxiRide-CA.sol:TaxiRide",
						"label": "driver",
						"offset": 0,
						"slot": "0",
						"type": "t_address"
					},
					{
						"astId": 5,
						"contract": "contracts/4_TaxiRide-CA.sol:TaxiRide",
						"label": "driverBalance",
						"offset": 0,
						"slot": "1",
						"type": "t_uint256"
					},
					{
						"astId": 15,
						"contract": "contracts/4_TaxiRide-CA.sol:TaxiRide",
						"label": "rides",
						"offset": 0,
						"slot": "2",
						"type": "t_mapping(t_uint256,t_struct(Ride)10_storage)"
					},
					{
						"astId": 17,
						"contract": "contracts/4_TaxiRide-CA.sol:TaxiRide",
						"label": "rideCount",
						"offset": 0,
						"slot": "3",
						"type": "t_uint256"
					}
				],
				"types": {
					"t_address": {
						"encoding": "inplace",
						"label": "address",
						"numberOfBytes": "20"
					},
					"t_mapping(t_uint256,t_struct(Ride)10_storage)": {
						"encoding": "mapping",
						"key": "t_uint256",
						"label": "mapping(uint256 => struct TaxiRide.Ride)",
						"numberOfBytes": "32",
						"value": "t_struct(Ride)10_storage"
					},
					"t_string_storage": {
						"encoding": "bytes",
						"label": "string",
						"numberOfBytes": "32"
					},
					"t_struct(Ride)10_storage": {
						"encoding": "inplace",
						"label": "struct TaxiRide.Ride",
						"members": [
							{
								"astId": 7,
								"contract": "contracts/4_TaxiRide-CA.sol:TaxiRide",
								"label": "location",
								"offset": 0,
								"slot": "0",
								"type": "t_string_storage"
							},
							{
								"astId": 9,
								"contract": "contracts/4_TaxiRide-CA.sol:TaxiRide",
								"label": "price",
								"offset": 0,
								"slot": "1",
								"type": "t_uint256"
							}
						],
						"numberOfBytes": "64"
					},
					"t_uint256": {
						"encoding": "inplace",
						"label": "uint256",
						"numberOfBytes": "32"
					}
				}
			},
			"userdoc": {
				"kind": "user",
				"methods": {},
				"version": 1
			}
		}
	}
}